:020000040800F2
:1000000000300020891E0008011E0008031E0008A1
:10001000051E0008071E0008091E00080000000059
:100020000000000000000000000000000B1E00089F
:100030000D1E0008000000000F1E0008111E000821
:10004000D91E0008D91E0008D91E0008D91E0008B4
:10005000D91E0008D91E0008D91E0008D91E0008A4
:10006000D91E0008D91E0008D91E0008D91E000894
:10007000D91E0008D91E0008D91E0008D91E000884
:10008000D91E0008D91E0008D91E0008D91E000874
:10009000D91E0008D91E0008D91E0008D91E000864
:1000A000D91E0008D91E0008D91E0008D91E000854
:1000B000D91E0008D91E000800000000D91E000843
:1000C000D91E00080000000000000000D91E000832
:1000D00000000000D91E0008151E0008D91E0008E7
:1000E000D91E0008D91E0008000000000000000012
:1000F0000000000000000000000000000000000000
:1001000000000000000000000000000000000000EF
:100110000000000000000000D91E0008D91E0008E1
:1001200000000000000000000000000000000000CF
:1001300000000000000000000000000000000000BF
:10014000D91E0008D91E00080000000000000000B1
:10015000000000000000000000000000000000009F
:10016000000000000000000000000000000000008F
:10017000000000000000000000000000000000007F
:0801800000000000D91E000878
:1001900010B5054C237833B9044B13B10448AFF3C1
:1001A00000800123237010BD7400002000000000B7
:1001B000802E000808B5034B1BB103490348AFF379
:1001C000008008BD0000000078000020802E00089C
:1001D00001F0FF01102A2BDB10F0070F08D010F8F8
:1001E000013B013A8B422DD010F0070F42B3F6D1FC
:1001F000F0B441EA012141EA014122F007047FF015
:1002000000070023F0E80256083C85EA010586EA6B
:10021000010685FA47F5A3FA87F586FA47F6A5FAA7
:1002200087F68EB9EED1F0BC01F0FF0102F00702B3
:1002300032B110F8013B013A83EA010313B1F8D15E
:100240000020704701387047002D06BF354603383F
:10025000073815F0010F07D1013015F4807F02BF78
:10026000013015F4C03F0130F0BC0138704700BFC9
:1002700081F0004102E000BF83F0004330B54FEA57
:1002800041044FEA430594EA050F08BF90EA020FC4
:100290001FBF54EA000C55EA020C7FEA645C7FEA57
:1002A000655C00F0E2804FEA5454D4EB5555B8BF7A
:1002B0006D420CDD2C4480EA020281EA030382EAEB
:1002C000000083EA010180EA020281EA0303362D7D
:1002D00088BF30BD11F0004F4FEA01314FF4801C50
:1002E0004CEA113102D0404261EB410113F0004F62
:1002F0004FEA03334CEA133302D0524263EB430319
:1003000094EA050F00F0A780A4F10104D5F1200EB6
:100310000DDB02FA0EFC22FA05F2801841F1000111
:1003200003FA0EF2801843FA05F359410EE0A5F1E5
:1003300020050EF1200E012A03FA0EFC28BF4CF016
:10034000020C43FA05F3C01851EBE37101F00045CC
:1003500007D54FF0000EDCF1000C7EEB00006EEBD9
:100360000101B1F5801F1BD3B1F5001F0CD3490863
:100370005FEA30004FEA3C0C04F101044FEA4452BA
:1003800012F5800F80F09A80BCF1004F08BF5FEA41
:10039000500C50F1000041EB045141EA050130BD21
:1003A0005FEA4C0C404141EB010111F4801FA4F1C4
:1003B0000104E9D191F0000F04BF01460020B1FA19
:1003C00081F308BF2033A3F10B03B3F120020CDA51
:1003D0000C3208DD02F1140CC2F10C0201FA0CF02F
:1003E00021FA02F10CE002F11402D8BFC2F1200C94
:1003F00001FA02F120FA0CFCDCBF41EA0C0190404A
:10040000E41AA2BF01EB0451294330BD6FEA040492
:100410001F3C1CDA0C340EDC04F11404C4F120027D
:1004200020FA04F001FA02F340EA030021FA04F38F
:1004300045EA030130BDC4F10C04C4F1200220FAE6
:1004400002F001FA04F340EA0300294630BD21FA24
:1004500004F0294630BD94F0000F83F4801306BFEA
:1004600081F480110134013D4EE77FEA645C18BFDE
:100470007FEA655C29D094EA050F08BF90EA020F75
:1004800005D054EA000C04BF1946104630BD91EA6D
:10049000030F1EBF0021002030BD5FEA545C05D170
:1004A0004000494128BF41F0004130BD14F58004AF
:1004B0003CBF01F5801130BD01F0004545F0FE4123
:1004C00041F470014FF0000030BD7FEA645C1ABF58
:1004D000194610467FEA655C1CBF0B46024650EA8F
:1004E000013406BF52EA033591EA030F41F40021BB
:1004F00030BD00BF90F0000F04BF0021704730B541
:100500004FF4806404F132044FF000054FF0000115
:1005100050E700BF90F0000F04BF0021704730B5D6
:100520004FF4806404F1320410F0004548BF4042AB
:100530004FF000013EE700BF42004FEAE2014FEA00
:1005400031014FEA02701FBF12F07F4393F07F4FDB
:1005500081F06051704792F0000F14BF93F07F4F0D
:10056000704730B54FF4607401F0004521F0004150
:1005700020E700BF50EA010208BF704730B54FF0D6
:1005800000050AE050EA010208BF704730B511F0DB
:10059000004502D5404261EB41014FF4806404F113
:1005A00032045FEA915C3FF4DCAE4FF003025FEA95
:1005B000DC0C18BF03325FEADC0C18BF033202EB1D
:1005C000DC02C2F1200300FA03FC20FA02F001FA77
:1005D00003FE40EA0E0021FA02F11444C1E600BF16
:1005E00070B54FF0FF0C4CF4E06C1CEA11541DBFC9
:1005F0001CEA135594EA0C0F95EA0C0F00F0DEF894
:100600002C4481EA030621EA4C5123EA4C5350EA78
:10061000013518BF52EA033541F4801143F48013C9
:1006200038D0A0FB02CE4FF00005E1FB02E506F05A
:100630000042E0FB03E54FF00006E1FB03569CF0AF
:10064000000F18BF4EF0010EA4F1FF04B6F5007FB5
:1006500064F5407404D25FEA4E0E6D4146EB060627
:1006600042EAC62141EA55514FEAC52040EA5E50B0
:100670004FEACE2EB4F1FD0C88BFBCF5E06F1ED85A
:10068000BEF1004F08BF5FEA500E50F1000041EB91
:10069000045170BD06F0004646EA010140EA02003E
:1006A00081EA0301B4EB5C04C2BFD4EB0C0541EA60
:1006B000045170BD41F480114FF0000E013C00F375
:1006C000AB8014F1360FDEBF002001F0004170BD99
:1006D000C4F10004203C35DA0C341BDC04F11404B2
:1006E000C4F1200500FA05F320FA04F001FA05F23E
:1006F00040EA020001F0004221F0004110EBD3700B
:1007000021FA04F642EB06015EEA430E08BF20EA36
:10071000D37070BDC4F10C04C4F1200500FA04F3D9
:1007200020FA05F001FA04F240EA020001F000416B
:1007300010EBD37041F100015EEA430E08BF20EADE
:10074000D37070BDC4F1200500FA05F24EEA020E26
:1007500020FA04F301FA05F243EA020321FA04F055
:1007600001F0004121FA04F220EA020000EBD3700C
:100770005EEA430E08BF20EAD37070BD94F0000F0C
:100780000FD101F00046400041EB010111F4801F40
:1007900008BF013CF7D041EA060195F0000F18BFF1
:1007A000704703F00046520043EB030313F4801F2D
:1007B00008BF013DF7D043EA0603704794EA0C0FE7
:1007C0000CEA135518BF95EA0C0F0CD050EA4106FD
:1007D00018BF52EA4306D1D181EA030101F000417A
:1007E0004FF0000070BD50EA410606BF10461946A2
:1007F00052EA430619D094EA0C0F02D150EA0136AE
:1008000013D195EA0C0F05D152EA03361CBF1046EE
:1008100019460AD181EA030101F0004141F0FE418D
:1008200041F470014FF0000070BD41F0FE4141F411
:10083000780170BD70B54FF0FF0C4CF4E06C1CEA11
:1008400011541DBF1CEA135594EA0C0F95EA0C0FC6
:1008500000F0A7F8A4EB050481EA030E52EA033581
:100860004FEA013100F088804FEA03334FF08055A2
:1008700045EA131343EA12634FEA022245EA1115CF
:1008800045EA10654FEA00260EF000419D4208BF80
:10089000964244F1FD0404F5407402D25B084FEA2D
:1008A0003202B61A65EB03055B084FEA32024FF4D9
:1008B00080104FF4002CB6EB020E75EB030E22BF36
:1008C000B61A754640EA0C005B084FEA3202B6EBF6
:1008D000020E75EB030E22BFB61A754640EA5C00A5
:1008E0005B084FEA3202B6EB020E75EB030E22BF35
:1008F000B61A754640EA9C005B084FEA3202B6EB36
:10090000020E75EB030E22BFB61A754640EADC00F4
:1009100055EA060E18D04FEA051545EA16754FEA56
:1009200006164FEAC30343EA52734FEAC2025FEA74
:100930001C1CC0D111F4801F0BD141EA00014FF003
:1009400000004FF0004CB6E711F4801F04BF0143D4
:100950000020B4F1FD0C88BFBCF5E06F3FF6AFAEF0
:10096000B5EB030C04BFB6EB020C5FEA500C50F180
:10097000000041EB045170BD0EF0004E4EEA113103
:1009800014EB5C04C2BFD4EB0C0541EA045170BD0A
:1009900041F480114FF0000E013C90E645EA060E4E
:1009A0008DE60CEA135594EA0C0F08BF95EA0C0F7C
:1009B0003FF43BAF94EA0C0F0AD150EA01347FF4C4
:1009C00034AF95EA0C0F7FF425AF104619462CE79B
:1009D00095EA0C0F06D152EA03353FF4FDAE1046FE
:1009E000194622E750EA410618BF52EA43067FF44F
:1009F000C5AE50EA41047FF40DAF52EA43057FF4DF
:100A0000EBAE12E74FF0FF3C06E000BF4FF0010CE9
:100A100002E000BF4FF0010C4DF804CD4FEA410C4D
:100A20007FEA6C5C4FEA430C18BF7FEA6C5C1BD01A
:100A300001B050EA410C0CBF52EA430C91EA030F9B
:100A400002BF90EA020F0020704710F1000F91EAF8
:100A5000030F58BF994208BF90422CBFD8176FEAC6
:100A6000E37040F0010070474FEA410C7FEA6C5C94
:100A700002D150EA013C07D14FEA430C7FEA6C5C9B
:100A8000D6D152EA033CD3D05DF8040B704700BFC7
:100A90008446104662468C461946634600E000BF15
:100AA00001B5FFF7B7FF002848BF10F1000F01BDE7
:100AB0004DF808EDFFF7F4FF0CBF012000205DF8B2
:100AC00008FB00BF4DF808EDFFF7EAFF34BF012037
:100AD00000205DF808FB00BF4DF808EDFFF7E0FFD0
:100AE00094BF012000205DF808FB00BF4DF808ED21
:100AF000FFF7CEFF94BF012000205DF808FB00BF88
:100B00004DF808EDFFF7C4FF34BF012000205DF869
:100B100008FB00BF4FEA410C7FEA6C5C02D150EA4F
:100B2000013C0AD14FEA430C7FEA6C5C02D152EAE5
:100B3000033C02D14FF0000070474FF001007047B6
:100B40004A0011D212F5001211D20DD56FF478734C
:100B5000B3EB62520ED44FEAC12343F0004343EAA1
:100B6000505323FA02F070474FF00000704750EAEC
:100B7000013002D14FF0FF3070474FF00000704756
:100B800038B50E4A0E4B054618784FF47A73B3FB0E
:100B9000F0F31068B0FBF3F000F0A0F8044658B989
:100BA0000F2D09D8024629464FF0FF3000F056F8C5
:100BB000044B20461D6038BD012038BD08000020D0
:100BC0000000002004000020074A08B5136843F025
:100BD00010031360032000F02FF80020FFF7D0FF70
:100BE00001F0BCF8002008BD00200240034A044B7D
:100BF00011681B780B441360704700BF9C000020F5
:100C000000000020014B1868704700BF9C000020C6
:100C100038B50446FFF7F6FF631C1CBF054B1B7875
:100C2000054618BFE418FFF7EDFF401B8442FAD8D1
:100C300038BD00BF00000020074AD36823F4E063FA
:100C40001B041B0C43F0BF63000243F4003300F4A9
:100C5000E0600343D360704700ED00E0174B30B510
:100C6000DC68C4F30224C4F10703251D042B28BF4C
:100C70000423062D4FF0010505FA03F303F1FF33BA
:100C80008CBF033C00241940A14005FA04F4013C48
:100C90002240002842EA01024FEA0212AFBF00F1EF
:100CA000604000F00F00064BD2B2A5BF00F56140D6
:100CB000D2B21A5480F8002330BD00BF00ED00E02E
:100CC00014ED00E04209012300F01F0003FA00F0D8
:100CD000014B43F82200704700E100E00138B0F119
:100CE000807F0AD2064B074A5860F02182F8231011
:100CF0000020072298601A6070470120704700BFEB
:100D000010E000E000ED00E090F82120022A10B58C
:100D100003D004228263012010BD0268C46B1168F5
:100D2000436B21F00E011160116821F00101116087
:100D3000026C012101FA02F26260002480F82110A5
:100D400080F8204013B19847204610BD184610BDCA
:100D50002DE9F04F85B00B68DFF86481564A0193A6
:100D60004FF00F090023019CDC4002D105B0BDE823
:100D7000F08F012404FA03FA019C14EA0A0500F03A
:100D800093804C6824F0100BBBF1020F11D1DF08E7
:100D900000EB870703F0070E3E6A4FEA8E0E09FA52
:100DA0000EFC26EA0C0C0E6906FA0EF646EA0C0654
:100DB0003E624FEA430C0327066807FA0CF7FF432D
:100DC00004F0030E3E400EFA0CFE0BF1FF3B4EEA20
:100DD0000606BBF1010F066011D8866806EA070B0C
:100DE000CE6806FA0CFE4EEA0B068660466826EAD6
:100DF0000A0AC4F300169E4046EA0A064660C66820
:100E000037408E6806FA0CF63743E600C7604BD5CC
:100E1000D8F8186046F00106C8F81860D8F81860CD
:100E200023F0030707F1804706F0010607F5803736
:100E3000039603F0030E039EBE684FEA8E0E09FA76
:100E40000EFCB0F1904F26EA0C0C2FD01B4EB04296
:100E50002ED006F58066B0422CD006F58066B042F2
:100E600014BF0526032606FA0EF646EA0C06BE60F7
:100E70001668EF4314F4803F0CBF3E402E431660CB
:100E8000566814F4003F0CBF3E402E4356609668EF
:100E900014F4801F0CBF3E402E439660D668A40217
:100EA00054BF3E402E43D66001335CE70026DAE7AC
:100EB0000126D8E70226D6E70004014000040048D6
:100EC000001002402DE9F347054618B9012002B091
:100ED000BDE8F0870368DA0711D42B689B0700F19F
:100EE00085802B681C0700F1F6802B68580700F1FD
:100EF0003F81EA69002A40F0D6810020E7E7BA4C3A
:100F0000636803F00C03042B07D0636803F00C0341
:100F1000082B16D16368DF0313D54FF4003393FA1F
:100F2000A3F2216893FAA3F3B3FA83F303F01F0348
:100F3000012202FA03F30B42CFD06B68002BCCD115
:100F4000C4E76A68B2F5803F25D1236843F4803353
:100F50002360E36AA96823F00F030B43E36252B3F3
:100F6000FFF750FE4FF400368046012796FAA6F3AD
:100F7000226896FAA6F3B3FA83F303F01F0307FA85
:100F800003F31342A9D1FFF73DFEA0EB080064284C
:100F9000ECD903209BE7236832B923F48033236024
:100FA000236823F48023D3E7B2F5A02FF5D143F4CF
:100FB00080232360C9E7FFF725FE4FF40036804603
:100FC000012796FAA6F3226896FAA6F3B3FA83F3FA
:100FD00003F01F0307FA03F313423FF47EAFFFF75A
:100FE00011FEA0EB08006428EBD9D2E77E4C6368C1
:100FF00013F00C0F07D0636803F00C03082B22D109
:101000006368DE031FD4022393FAA3F2216893FAE4
:10101000A3F3B3FA83F303F01F03012202FA03F3ED
:101020000B4203D02B6993427FF450AF2168F82321
:1010300093FAA3F3B3FA83F26B69934021F0F802B9
:10104000134323604DE72A6901260AB396FAA6F3F3
:10105000B3FA83F303F1845303F584139B0002274F
:101060001E60FFF7CFFD804697FAA7F3226897FA34
:10107000A7F3B3FA83F303F01F0306FA03F3134253
:10108000D4D1FFF7BFFDA0EB08000228ECD980E720
:1010900096FAA6F3B3FA83F303F1845303F58413AA
:1010A0009B0002271A60FFF7ADFD804697FAA7F371
:1010B000226897FAA7F3B3FA83F303F01F0306FA43
:1010C00003F313423FF40DAFFFF79CFDA0EB0800C4
:1010D0000228EBD95DE7AA69434E444901241AB3BB
:1010E00094FAA4F3B3FA83F30B449B0002271C6029
:1010F000FFF788FD804697FAA7F397FAA7F397FAC8
:10110000A7F3726A97FAA7F3B3FA83F303F01F0306
:1011100004FA03F313427FF4E8AEFFF773FDA0EB8C
:1011200008000228E7D934E794FAA4F3B3FA83F36A
:101130000B449B0002271A60FFF764FD804697FA74
:10114000A7F397FAA7F397FAA7F3726A97FAA7F3A8
:10115000B3FA83F303F01F0304FA03F313423FF4DB
:10116000C4AEFFF74FFDA0EB08000228E7D910E757
:101170001D4CE369D90034D4E36943F08053E36143
:10118000E36903F080530193019B0126184F3B68EC
:10119000DA052FD5EB68012B3DD1236A43F001031B
:1011A0002362FFF72FFD02278246B9464FF0010860
:1011B00097FAA7F397FAA7F3002B6CD0226A99FA53
:1011C000A9F3B3FA83F303F01F0308FA03F31342FE
:1011D00058D0002E3FF48DAEE36923F08053E361D5
:1011E00087E60026D2E700BF001002402081901061
:1011F000007000403B6843F480733B60FFF702FDE2
:1012000080463B68DB05C5D4FFF7FCFCA0EB08007B
:101210006428F6D9BDE63BBB236A23F001032362B1
:10122000236A23F004032362FFF7ECFC02278246C3
:10123000B9464FF0010897FAA7F397FAA7F373B3EB
:10124000226A99FAA9F3B3FA83F303F01F0308FAA9
:1012500003F31342BDD0FFF7D5FC41F28833A0EB76
:101260000A009842E7D994E6052B236A03D143F09C
:101270000403236291E723F001032362236A23F02E
:1012800004038DE7FFF7BEFC41F28833A0EB0A00B0
:1012900098428DD97DE697FAA7F3626A8FE797FAAD
:1012A000A7F3626ACDE7414C636803F00C03082B97
:1012B0003FF40CAE022A4FF0807352D193FAA3F39D
:1012C000B3FA83F303F1845303F584139B000022E4
:1012D0001A60FFF797FC4FF000778046012697FAD7
:1012E000A7F3226897FAA7F3B3FA83F303F01F0377
:1012F00006FA03F313422DD162686B6A296A22F45D
:1013000074120B43134363604FF0807393FAA3F39B
:10131000B3FA83F303F1845303F584139B004FF076
:1013200000751E60FFF76EFC0126074695FAA5F3CF
:10133000226895FAA5F3B3FA83F303F01F0306FAC4
:1013400003F313427FF4D9ADFFF75CFCC01B022806
:10135000ECD91EE6FFF756FCA0EB08000228BED928
:1013600017E693FAA3F3B3FA83F303F1845303F577
:1013700084139B0000221A60FFF744FC4FF00075B5
:101380000746012695FAA5F3226895FAA5F3B3FA64
:1013900083F303F01F0306FA03F313423FF4ADADEA
:1013A000FFF730FCC01B0228ECD9F2E50010024028
:1013B00010B5134C616801F00C03082B1ED14FF4DB
:1013C000701393FAA3F301F47012B3FA83F322FAC1
:1013D00003F30C4AD05CE36A0F2292FAA2F2B2FA4B
:1013E00082F203F00F03D340074AD25CCB034ABF1B
:1013F000064B074BB3FBF2F3584310BD034810BD37
:1014000000100240982E0008A82E000800127A0052
:1014100000093D002DE9F0410D46044610B90120B8
:10142000BDE8F0814C4A136803F007038B422ED3CA
:101430002268910736D4D2073CD4474A136803F098
:1014400007039D4275D32268444D12F0040F7CD1EE
:10145000130706D56B68226923F4605343EAC2037D
:101460006B60FFF7A5FF6B68F02292FAA2F2B2FA66
:1014700082F203F0F003D340394AD35CD840394BB1
:1014800018600020FFF77CFB0020BDE8F0811368A6
:1014900023F007030B431360136803F0070399421B
:1014A000BDD1C5E72D49A0684B6823F0F003034385
:1014B0004B60C0E76268294E012A27D14FF4003300
:1014C00093FAA3F1316893FAA3F3B3FA83F303F029
:1014D0001F0302FA03F30B42A1D0736823F0030346
:1014E0001A437260FFF78EFB41F288380746736833
:1014F000626803F00C03B3EB820F9ED0FFF782FB10
:10150000C01B4045F3D90320BDE8F081022A0CBF7F
:101510004FF00073022393FAA3F1306893FAA3F318
:10152000B3FA83F303F01F03012101FA03F303422B
:10153000D2E7136823F007032B431360136803F00B
:1015400007039D427FF46BAF7DE76B68E16823F48E
:10155000E0630B436B607BE7002002400010024019
:10156000BF2E000808000020084B4FF4E0625B68C3
:1015700092FAA2F2B2FA82F203F4E063D340044A90
:10158000D35C044A1068D840704700BF0010024086
:10159000CF2E000808000020084B4FF460525B6813
:1015A00092FAA2F2B2FA82F203F46053D340044AF0
:1015B000D35C044A1068D840704700BF0010024056
:1015C000CF2E00080800002003681A6822F49072E9
:1015D0001A609A6822F001029A60202380F86A302B
:1015E000704770477047704708B5406A0023A0F8FD
:1015F0005A30A0F85230FFF7F6FF08BD38B5044660
:1016000005682169A368C26928680B4361690B43B7
:101610004949134301400B432B606B68E168206A22
:1016200023F440530B436B60A968A36921F4306134
:1016300003430B43AB60414B9D4212D103F558432A
:101640003F491B6B03F00303B2F5004FCB5C3BD16A
:10165000082B36D8DFE803F00F2124352D3535353A
:101660003000384B9D4203D003F580639D425ED12C
:10167000B2F5004F31D1FFF777FF61684A0802EBFE
:101680004003B3FBF1F39BB2002023F00F0221686B
:10169000C3F342031343CB6038BDFFF77DFFECE794
:1016A0006068430803F5740303F51053B3FBF0F3CC
:1016B000E9E7FFF77DFEE0E76068430803F5803364
:1016C000F4E701200023E0E7082B33D8DFE803F03C
:1016D00005101B32273232322A00FFF745FF6368BC
:1016E00000EB5300B0FBF3F080B2E860002038BD9F
:1016F000FFF752FF636800EB5300B0FBF3F00F4BB2
:1017000080B2D860F2E76268530803F5F40303F58A
:101710009053B3FBF2F3094A9BB2D360E6E7FFF7BD
:1017200047FEE7E76268530803F50043F1E7B2F5C7
:10173000004FC6D0012038BDF369FFEF00380140EB
:10174000B82E000800440040436ADA0710B506D5F9
:101750000168846A4A6822F4003222434A609C0786
:1017600006D50168C46A4A6822F4803222434A607E
:10177000590706D50168046B4A6822F48022224387
:101780004A601A0706D50168446B4A6822F4004291
:1017900022434A60DC0606D50168846B8A6822F41D
:1017A000805222438A60990606D50168C46B8A6814
:1017B00022F4005222438A605A060FD50168046C55
:1017C0004A6822F480122243B4F5801F4A6005D192
:1017D0004A68446C22F4C00222434A601B0606D5C4
:1017E0000268816C536823F400230B43536010BDDF
:1017F0002DE9F041069D04460F461646984621689D
:10180000CA6937EA02030CBF01220022B24202D0A9
:101810000020BDE8F0816B1CF2D09DB923681A68E6
:1018200022F4D0721A609A6822F001029A60202392
:1018300084F8693084F86A30002384F86830032023
:10184000BDE8F081FFF7DEF9A0EB08008542D6D2B3
:10185000E4E72DE9F3411F4690F86930202B044658
:101860000D4690464CD1002948D0002A46D090F829
:101870006830012B44D0012380F868300023C36610
:10188000212380F86930FFF7BDF9A4F8508006469F
:10189000A4F85280B4F8522092B262B9009733464D
:1018A00040212046FFF7A4FF98B9202384F869302F
:1018B00084F868000EE0B4F852300097013B9BB208
:1018C000A4F852300022334680212046FFF790FFD3
:1018D00018B1032002B0BDE8F081A3682268B3F517
:1018E000805F07D123692BB935F8023BC3F30803A6
:1018F0001385CFE72B7813850135CBE70120E9E786
:101900000220E7E773B504460026C666FFF77AF9BA
:1019100023681B681A07054617D423681B685B07F2
:101920000AD56FF07E43009300222B464FF48001CE
:101930002046FFF75DFFA0B92023002084F869301E
:1019400084F8680084F86A300CE06FF07E430093FE
:10195000324603464FF400112046FFF749FF0028A6
:10196000DBD0032002B070BD10B5044660B390F820
:10197000693003F0FF021BB980F8682000F006FA16
:101980002268242384F86930136823F0010313606C
:101990002046FFF733FE012816D0636A13B12046B4
:1019A000FFF7D2FE23685A6822F490425A609A6880
:1019B00022F02A029A601A6842F0010220461A6058
:1019C000BDE81040FFF79EBF012010BD90F86930C0
:1019D000212B27D1B0F8523002689BB24BB9116865
:1019E00021F080011160116841F040011160002078
:1019F00070478368B3F5805FC36C0ED1016961B92C
:101A000033F8021BC1F308011185C364B0F85230EA
:101A1000013B9BB2A0F85230E9E7591CC1641B7826
:101A20001385F3E702207047016808B50B6823F0BF
:101A300040030B60202380F86930FFF7D2FD0020BF
:101A400008BD90F86A30222B10B5036829D1998C13
:101A50008368B0F85C20B3F5805F02EA0102436D51
:101A60001BD10169C9B923F8022B4365B0F85A406C
:101A7000013CA4B2A0F85A406CB903681A6822F479
:101A800090721A609A6822F001029A60202380F80E
:101A90006A30FFF7A7FD002010BD591C41651A7080
:101AA000E4E79A6942F008029A61022010BD000042
:101AB0000268D369116870B513F00F05044607D1A9
:101AC0009E0605D58E0603D5BDE87040FFF7B9BF69
:101AD0009068002D5CD010F0010502D111F4907FC8
:101AE00056D0D80707D5CE0505D501201062E06E87
:101AF00040F00100E066980706D52DB10220106283
:101B0000E06E40F00400E0665E0706D52DB10420CB
:101B10001062E06E40F00200E066180707D58E06FE
:101B200000D425B108201062E26E0243E266E26E44
:101B3000002A50D0980604D58A0602D52046FFF721
:101B400080FFE36E1B07204604D423689D6815F0D0
:101B5000400519D0FFF738FD23689A6856060FD55F
:101B60009A68606E22F040029A6048B11A4B436353
:101B7000FFF7CAF878B3606EBDE87040436B184752
:101B80002046FFF730FD70BDFFF72DFDE56670BD07
:101B9000DD020ED546020CD54FF4801313622023CC
:101BA00084F86930204684F86A30BDE8704000F05F
:101BB00015B81D0606D5080604D52046BDE87040B8
:101BC000FFF704BF5A0606D54B0604D52046BDE8EC
:101BD0007040FFF729BF70BDE9150008704710B5C8
:101BE00090B02822002106A800F09CF914220021C0
:101BF00001A800F097F901230A93102302240B9304
:101C000006A84FF460130F9306940D94FFF75AF94A
:101C10000F2301934FF480620023214601A8029410
:101C2000039304920593FFF7F5FB10B010BD00007D
:101C300013B5FEF7C9FFFFF7D2FF184B184C5A69CE
:101C4000184842F480025A615A6902F480020092F4
:101C5000009A5A6942F400325A615B6903F4003316
:101C60000193019B4FF4164384E809000C220023E2
:101C70002046A360E36023616261A361E3612362A4
:101C80006362FFF771FE20460A2240F6FF7100F002
:101C900023F84FF47A70FEF7BBFFF4E70010024020
:101CA000A00000200044004008B588B1FEF732FCD7
:101CB00041EC100B00F0E0FD00F05AFD0022054B56
:101CC00051EC100BFEF7DAFAFEF73AFFC0B208BD8E
:101CD000012008BD0000F03F2DE9F843B1F10009F3
:101CE000B8BFC9F1000900AF06464846B4BF012598
:101CF0000025FFF7D9FFC31D23F00703ADEB030D4C
:101D000004464A461449684600F014F92B19DBB220
:101D10009A1CD2B2D11D21F00701E846ADEB010DAE
:101D20000DEB02000D2400F8014C0A24694600F86E
:101D3000024C013B5BB2002B09DA0DB12D230B7075
:101D40000A233046FFF785FDBD46BDE8F883581BE2
:101D500018F80000C854ECE7BC2E00080A4B9A693A
:101D600042F001029A619A6982B002F00102009287
:101D7000009ADA6942F08052DA61DB6903F080533D
:101D80000193019B02B070470010024010B5044659
:101D900088B01422002103A800F0C4F82268174B71
:101DA0009A4229D103F5E63303A9DA6942F40032F5
:101DB000DA61DA6902F400320192019A5A6942F456
:101DC00000325A615B6903F400330293029B48F2CC
:101DD0000403039302230493032306934FF09040DC
:101DE00007230793FEF7B4FF002226201146FEF7D3
:101DF00035FF2620FEF766FF08B010BD0044004006
:101E00007047FEE7FEE7FEE7FEE770477047704762
:101E1000FEF7ECBE0148FFF74BBE00BFA00000205C
:101E20001549D1F8883043F47003C1F88830134B5A
:101E30001A6842F001021A605868114A02405A605A
:101E40001A6822F0847222F480321A601A6822F42E
:101E500080221A605A6822F4FE025A60DA6A22F07E
:101E60000F02DA62186B074A02401A6300229A6076
:101E70004FF000638B60704700ED00E000100240FF
:101E80000CC07FF8CCFC00FFDFF834D0002103E069
:101E90000C4B5B58435004310B480C4B42189A4290
:101EA000F6D30B4A02E0002342F8043B094B9A4266
:101EB000F9D3FFF7B5FF00F011F8FFF7B9FEFEE721
:101EC00000300020182F00080000002074000020BF
:101ED0007400002014010020FEE7000070B50D4ED4
:101EE0000D4CA41BA4100025A54209D10B4E0C4C8F
:101EF00000F0C6FFA41BA4100025A54205D170BDAB
:101F000056F8253098470135EEE756F825309847C2
:101F10000135F2E7102F0008102F0008102F0008DD
:101F2000142F000802440346934200D1704703F87F
:101F3000011BF9E70EB400B59CB04FF402711DAB64
:101F4000ADF81410029006906FF000410A48049119
:101F500007914FF6FF7153F8042BADF81610006887
:101F6000019302A900F066F8029B00221A701CB0CF
:101F70005DF804EB03B070470C0000202DE9F0473A
:101F80008E689E4282460C469146984635D88A898C
:101F900012F4906F31D0256809696F1A65690223C0
:101FA00005EB450595FBF3F508F101033B449D4224
:101FB00038BF1D46530531D5294600F039FB06468A
:101FC00050B90C23CAF80030A38943F04003A38121
:101FD0004FF0FF30BDE8F0873A46216900F0B4FACF
:101FE000A38923F4906343F08003A3812661656194
:101FF0003E44ED1B2660A5604646464528BF464642
:1020000032464946206800F0AAFAA3689B1BA360E9
:1020100023681E4426600020BDE8F0872A4600F0B1
:1020200065FB06460028E1D12169504600F0B2FA6E
:10203000C7E700002DE9F04F9DB0804603938B89E0
:102040001C060D4616460FD50B696BB9402100F0F2
:10205000EFFA2860286128B90C23C8F800304FF047
:10206000FF30C5E040236B610023099320238DF8E6
:10207000293030238DF82A304FF0010B37463C468B
:1020800014F8013B002B3CD1B7EB060A0BD05346AA
:10209000324629464046FFF771FF013000F0A38029
:1020A000099B534409933B78002B00F09C8000234C
:1020B0004FF0FF3204930793059206938DF8533047
:1020C0001A93052221785048FEF782F8671C049B7A
:1020D000D8B9D90644BF20228DF853201A0744BF2F
:1020E0002B228DF8532022782A2A16D0079A002115
:1020F0000A20274601343B78303B092B51D9C9B11E
:1021000011E0252BC0D02746B9E73F4A801A0BFAC9
:1021100000F0184304903C46D3E7039A111D12685F
:102120000391002A01DB079204E0524243F00203CC
:10213000079204933B782E2B0ED17B782A2B07F144
:10214000010132D1039B1A1D1B680392002BB8BFFB
:102150004FF0FF33023705932C4C39780322204689
:10216000FEF736F838B14023001B03FA00F0049B59
:10217000034304930137397825488DF82810062247
:102180007E1CFEF725F8002835D0224BFBB9039BB7
:10219000073323F0070308330393099B4B44099348
:1021A0006CE700FB02320121A3E7002305931846E8
:1021B0000A240F4601313A78303A092A03D9002B14
:1021C000CAD00590C8E704FB00200123F1E703AB68
:1021D00000932A46104B04A94046AFF30080B0F1AB
:1021E000FF3F8146D9D1AB895B063FF538AF0998EF
:1021F0001DB0BDE8F08F03AB00932A46064B04A93F
:10220000404600F081F8EAE7D72E0008DD2E0008EE
:10221000E12E0008000000007D1F00082DE9F047B6
:1022200091461F468A680B69DDF820809342B8BF4B
:102230001346C9F8003091F8432006460C4612B107
:102240000133C9F800302368990642BFD9F800303D
:102250000233C9F80030256815F0060507D104F1EE
:10226000190AE368D9F800209B1A9D4229DB94F8EB
:1022700043302268003318BF012392062ED404F1A4
:10228000430239463046C047013021D02368E56813
:10229000D9F8002003F00603042B08BFAD1AA36889
:1022A00022690CBF25EAE57500259342C4BF9B1A3D
:1022B000ED184FF000091A344D451BD10020BDE840
:1022C000F0870123524639463046C047013003D1DA
:1022D0004FF0FF30BDE8F0870135C2E7E1185A1C26
:1022E000302081F84300224494F8451082F84310CE
:1022F0000233C4E70123224639463046C047013045
:10230000E6D009F10109D7E72DE9F04317460A7E27
:1023100085B06E2A984606460C460C9B01F1430E8A
:1023200000F0BC801AD8632A2ED00AD8002A00F008
:10233000C880582A00F08A8004F1420584F84220BF
:102340002AE0642A01D0692AF6D121681A6811F0BE
:10235000800F23D0111D1960136827E0732A00F045
:10236000B48008D86F2A2AD0702AE5D10A6842F0D2
:1023700020020A6003E0752A21D0782ADCD1782275
:1023800084F845206E4964E01A6801F14205111D88
:102390001960136884F842300123A3E011F0400F64
:1023A00002F104011960D7D0B2F90030002B03DA32
:1023B0002D225B4284F8432062490A2217E02068FC
:1023C000196810F0800F03D0081D18600B6806E034
:1023D00010F0400F01F104001860F7D00B88594944
:1023E0006F2A14BF0A220822002084F8430065687F
:1023F000A560002DC0F29C80206820F004002060C1
:10240000002B3FD1002D40F095807546082A0BD156
:102410002368DA0708D5236962689A42DEBF302351
:1024200005F8013C05F1FF35AEEB05032361CDF85E
:1024300000803B4603AA21463046FFF7EFFE0130FD
:1024400055D14FF0FF3005B0BDE8F08381F845204D
:102450003C492268186812F0800F00F104051D60E5
:1024600001D0036802E05506FBD50388D00744BFBE
:1024700042F0200222601BB9226822F02002226072
:102480001022B1E77546B3FBF2F002FB1033CB5CD0
:1024900005F8013D03460028F5D1B7E708681A683A
:1024A000496910F0800F04D0101D1860136819607E
:1024B00007E010F0400F02F1040018601368F6D036
:1024C0001980002323617546B1E71A68111D196050
:1024D0001568626800212846FDF77AFE08B1401BA6
:1024E000606063682361002384F843309FE72369B9
:1024F0002A4639463046C0470130A2D023689B07A0
:1025000007D5002504F11909E368039A9B1A9D4237
:1025100005DBE068039B9842B8BF184693E70123A8
:102520004A4639463046C04701308AD00135EBE78C
:10253000002BA7D10B7884F8423004F1420565E7FF
:10254000F92E0008E82E000810B5431E0A449142F7
:1025500000D110BD11F8014B03F8014FF7E7884295
:1025600010B501EB020303D8421E99420CD110BDF5
:102570009842F9D28118D21AD34200D110BD13F873
:10258000014D01F8014DF7E711F8014B02F8014F39
:10259000EBE7000038B50546002945D051F8043C6A
:1025A0000C1F002BB8BFE41800F0D6F81F4A1368C0
:1025B000104633B9636014602846BDE8384000F027
:1025C000CCB8A3420CD921686218934204BF1A68A0
:1025D0005B68636004BF521822600460ECE7134636
:1025E0005A680AB1A242FAD919685818A0420BD108
:1025F00020680144581882421960DDD11068526881
:102600005A6001441960D7E702D90C232B60D3E745
:10261000206821188A4204BF11685268626004BFB2
:10262000091821605C60C7E738BD00BF900000203A
:1026300070B5CD1C25F0030508350C2D38BF0C25D1
:10264000002D064601DBA94203D90C23336000208C
:1026500070BD00F081F8234A1468214691B9224CDC
:1026600023681BB9304600F067F8206029463046E1
:1026700000F062F8431C26D10C233360304600F092
:102680006CF8E4E70B685B1B1AD40B2B0FD90B60BB
:10269000CD50CC18304600F060F804F10B00231D3B
:1026A00020F00700C31A1BD05A42E25070BD8C4282
:1026B0000DBF63684B686360136018BF0C46E9E7A1
:1026C0000C464968CAE7C41C24F00304A04205D0A4
:1026D000211A304600F030F80130CDD02560D9E71E
:1026E00070BD00BF9000002094000020F8B50746A0
:1026F00014460E4621B91146BDE8F840FFF798BFD1
:1027000022B9FFF747FF25462846F8BD00F026F816
:1027100084420FD921463846FFF78AFF0546002834
:10272000F2D031462246FFF70FFF31463846FFF719
:1027300031FFE9E73546E7E738B5064C00230546A3
:102740000846236000F08EFB431C02D1236803B1CE
:102750002B6038BD100100207047704751F8040C01
:102760000028A0F10400BCBF0B58C018704700003F
:1027700051EC100B2DE9F041C1F30A57A7F2FF36D7
:10278000132E10EE108A0C4610EE105A35DC002E77
:1027900017DA35A3D3E90023FDF770FD00220023EB
:1027A000FEF7AEF950B1002C5ADA24F0004353EA98
:1027B00008032F4B4FF0000518BF1C462146284642
:1027C00025E02C4F374101EA070303431FD026A31E
:1027D000D3E90023FDF752FD00220023FEF790F914
:1027E0000028EBD0002CBEBF4FF4801343FA06F64E
:1027F000A41924EA07040025E0E7332E0BDDB6F523
:10280000806F04D110EE102A0B46FDF737FD41EC26
:10281000100BBDE8F081A7F213474FF0FF3323FA06
:1028200007F73842F3D010A3D3E90023FDF726FDC4
:1028300000220023FEF764F90028BFD0002C02DA42
:10284000142E03D1013425EA0705B7E70123C6F1A9
:10285000340603FA06F63544A84588BFE418F2E7C3
:1028600000252C46AAE700BF9C7500883CE4377E13
:102870000000F0BFFFFF0F00F0B52DED028B8BB015
:1028800055EC104B00F078F8364BB0EE408AF0EE85
:10289000608A93F90060731C5CD022462B46204668
:1028A0002946FEF737F90746002853D100220023B6
:1028B00020462946FEF710F900284BD02A4B0193F9
:1028C0000897CDE90245CDE90445A6B9274B4FF05D
:1028D0006042CDE906232046002200232946FEF768
:1028E000E7F840BB0123022E009319D100F0B4FA9F
:1028F0002123036019E01E4B0022CDE90623204668
:10290000002200232946FEF7D3F80028EAD002234C
:102910009E42009311D100F09FFA2223036011E040
:10292000684600F0B7F80028E0D0124800F0B4F88C
:102930008DED060B06E002230093684600F0AAF82E
:102940000028E8D0089B1BB100F086FA089B0360C2
:102950009DED068BB0EE480AF0EE680A0BB0BDECB8
:10296000028BF0BD700000200A2F0008FFFFEFC7A8
:102970000000F0FFDC2E00082DE9F74355EC104B6A
:10298000B5F5801F10EE102A2B4630DA25F00041F5
:102990000A430AD13C49002200230020FDF74AFFE8
:1029A00041EC100B03B0BDE8F083002D09DA10EE06
:1029B000102A2B4620462946FDF75EFC0022002304
:1029C000ECE70022314B294610EE100AFDF708FE15
:1029D0006FF0350204460D460B462D498B4208DD4B
:1029E00022462B4620462946FDF748FCD8E7002220
:1029F000F3E71815A0F2FF3010444FEAD0794844AD
:102A0000C3F31308FDF786FDC9F57F73033348EA66
:102A1000035545EC104B06460F4600F045F814A34D
:102A2000D3E90023304639468DED000BFDF7D8FD84
:102A30009DED000B04460D460FA3D3E9002351EC96
:102A4000100BFDF7CDFD02460B4620462946FDF74B
:102A500015FC0BA3D3E9002304460D463046394646
:102A6000FDF7BEFD02460B4620462946BCE700BFE7
:102A7000362BF111F3FE593D0EE526157BCBDB3FDE
:102A800000609F501344D33F000050C300005043E8
:102A9000FFFFEF7F002070479FED010B704700BFE5
:102AA000000000000000F87F2DE9F04F51EC100B02
:102AB000B1F5801F87B010EE103A0D4627DA21F0ED
:102AC000004213430AD1CC49002200230020FDF725
:102AD000B1FE41EC100B07B0BDE8F08F002907DA1A
:102AE00010EE102A0B46FDF7C7FB00220023EEE78D
:102AF000C24B0022FDF774FD6FF035030D46C04A4E
:102B0000954206DD02460B46FDF7B8FBE1E70023E0
:102B1000F5E72C15A4F2FF34C5F313051C4405F5A5
:102B2000152303F6647303F4801383F07F5282F459
:102B3000401242EA050104EB13540022B14BFDF7A9
:102B40009BFBAB1CC3F31303022B82468B464FF057
:102B500000025BDC0023FDF7ABFFD0B1002C00F0DE
:102B600070812046FDF7D6FC8FA3D3E900230646EB
:102B70000F46FDF735FD8EA3D3E9002304460D462D
:102B800030463946FDF72CFD02460B4620462946C5
:102B9000BAE789A3D3E9002350465946FDF720FD43
:102BA00002460B4600209849FDF766FB5246064652
:102BB0000F465B4650465946FDF712FD02460B464E
:102BC00030463946FDF70CFD06460F4634B902463D
:102BD0000B4650465946FDF74FFB7AE72046FDF776
:102BE00099FC71A3D3E9002380468946FDF7F8FCE0
:102BF0006FA3D3E9002304460D4640464946FDF73E
:102C0000EFFC02460B4630463946B2E04FF08043B7
:102C1000FDF734FB02460B4650465946FDF70AFEC7
:102C2000CDE900012046FDF775FCDDE90023CDE983
:102C3000020110461946FDF7D3FC02460B46CDE9CA
:102C40000401FDF7CDFC5EA3D3E9002306460F4641
:102C5000FDF7C6FC5CA3D3E90023FDF70FFB32466A
:102C60003B46FDF7BDFC5AA3D3E90023FDF706FB65
:102C700032463B46FDF7B4FC57A3D3E90023FDF7EA
:102C8000FDFADDE90423FDF7ABFC55A3D3E90023EE
:102C9000CDE9040130463946FDF7A2FC52A3D3E941
:102CA0000023FDF7EBFA32463B46FDF799FC50A3B3
:102CB000D3E90023FDF7E2FA32463B46FDF790FCEC
:102CC000A5F5C22802460B46C5F5D725DDE9040166
:102CD000FDF7D4FAA8F27A48513545EA0805002DE7
:102CE00006460F4650DD0022474B50465946FDF739
:102CF00077FC52465B46FDF773FC8046894694B9E3
:102D000002460B4630463946FDF7B8FADDE90023A6
:102D1000FDF766FC02460B4640464946FDF7ACFA15
:102D200002460B4655E720A3D3E90023DDE9020163
:102D3000FDF756FC42464B4604460D4630463946A2
:102D4000FDF79CFADDE90023FDF74AFC18A3D3E95F
:102D5000002306460F46DDE90201FDF741FC02466D
:102D60000B4630463946FDF789FA02460B46404687
:102D70004946FDF781FA52465B46FDF77DFA024669
:102D80000B462046294626E7002C3FD102460B463B
:102D900050465946FDF770FADDE90023FDF720FCA7
:102DA000BEE700BFAFF300800000E0FE422EE63F2A
:102DB000763C7935EF39EA3D555555555555D53F52
:102DC00044523EDF12F1C23FDE03CB966446C73F5A
:102DD000599322942449D23F935555555555E53F73
:102DE0009FC678D0099AC33FAF788E1DC571CC3F7E
:102DF00004FA97999999D93F000050C300005043B5
:102E0000FFFFEF7F0000F03F0000E03F0EA3D3E99B
:102E10000023DDE90201FDF7E3FB32463B460446B1
:102E20000D4650465946FDF727FADDE90023FDF728
:102E3000D7FB07A3D3E9002306460F46DDE90201CD
:102E4000DDE60020002144E60000E0FE422EE63FE1
:102E5000763C7935EF39EA3D014B1868704700BF81
:102E60000C000020044B1968024609B90349196097
:102E7000186802441A60704798000020140100206E
:102E8000F8B500BFF8BC08BC9E467047F8B500BF57
:082E9000F8BC08BC9E46704727
:102E980002030405060708090A0B0C0D0E0F101093
:102EA8000102030405060708090A0B0C0D0E0F1092
:102EB8000004080225640000000000000000000172
:102EC80002030406070809000000000102030423A6
:102ED8002D302B2000686C4C00656667454647001E
:102EE8003031323334353637383941424344454638
:102EF80000303132333435363738396162636465CE
:082F080066006C6F67313000B8
:042F1000B5010008FF
:042F1400910100081F
:102F1800010000001000000000127A0010000020DC
:102F28000000000000000000000000000000000099
:102F38000000000000000000000000000000000089
:102F48000000000000000000000000000000000079
:102F58000000000000000000000000000000000069
:102F68000000000000000000000000000000000059
:102F78000000000000000000000000000000000049
:042F88000100000044
:0400000508001E8948
:00000001FF
