:020000040800F2
:1000000000300020DD220008552200085722000899
:10001000592200085B2200085D2200080000000051
:100020000000000000000000000000005F22000847
:100030006122000800000000632200086522000819
:100040002D2300082D2300082D2300082D23000850
:100050002D2300082D2300082D2300082D23000840
:100060002D2300082D2300082D2300082D23000830
:100070002D2300082D2300082D2300082D23000820
:100080002D2300082D2300082D2300082D23000810
:100090002D2300082D2300082D2300082D23000800
:1000A0002D2300082D2300082D2300082D230008F0
:1000B000692200082D230008000000002D230008FD
:1000C0002D23000800000000000000002D23000880
:1000D000000000002D2300082D2300082D23000818
:1000E0002D2300082D230008000000000000000060
:1000F0000000000000000000000000000000000000
:1001000000000000000000000000000000000000EF
:1001100000000000000000002D2300082D2300082F
:1001200000000000000000000000000000000000CF
:1001300000000000000000000000000000000000BF
:100140002D2300082D2300080000000000000000FF
:10015000000000000000000000000000000000009F
:10016000000000000000000000000000000000008F
:10017000000000000000000000000000000000007F
:08018000000000002D2300081F
:1001880010B5054C237833B9044B13B10448AFF3C9
:1001980000800123237010BD0C0000200000000027
:1001A8001034000808B5034B1BB103490348AFF3EB
:1001B800008008BD00000000100000201034000876
:1001C80081F0004102E000BF83F0004330B54FEA00
:1001D80041044FEA430594EA050F08BF90EA020F6D
:1001E8001FBF54EA000C55EA020C7FEA645C7FEA00
:1001F800655C00F0E2804FEA5454D4EB5555B8BF23
:100208006D420CDD2C4480EA020281EA030382EA93
:10021800000083EA010180EA020281EA0303362D25
:1002280088BF30BD11F0004F4FEA01314FF4801CF8
:100238004CEA113102D0404261EB410113F0004F0A
:100248004FEA03334CEA133302D0524263EB4303C1
:1002580094EA050F00F0A780A4F10104D5F1200E5F
:100268000DDB02FA0EFC22FA05F2801841F10001BA
:1002780003FA0EF2801843FA05F359410EE0A5F18E
:1002880020050EF1200E012A03FA0EFC28BF4CF0BF
:10029800020C43FA05F3C01851EBE37101F0004575
:1002A80007D54FF0000EDCF1000C7EEB00006EEB82
:1002B8000101B1F5801F1BD3B1F5001F0CD349080C
:1002C8005FEA30004FEA3C0C04F101044FEA445263
:1002D80012F5800F80F09A80BCF1004F08BF5FEAEA
:1002E800500C50F1000041EB045141EA050130BDCA
:1002F8005FEA4C0C404141EB010111F4801FA4F16D
:100308000104E9D191F0000F04BF01460020B1FAC1
:1003180081F308BF2033A3F10B03B3F120020CDAF9
:100328000C3208DD02F1140CC2F10C0201FA0CF0D7
:1003380021FA02F10CE002F11402D8BFC2F1200C3C
:1003480001FA02F120FA0CFCDCBF41EA0C019040F2
:10035800E41AA2BF01EB0451294330BD6FEA04043B
:100368001F3C1CDA0C340EDC04F11404C4F1200226
:1003780020FA04F001FA02F340EA030021FA04F338
:1003880045EA030130BDC4F10C04C4F1200220FA8F
:1003980002F001FA04F340EA0300294630BD21FACD
:1003A80004F0294630BD94F0000F83F4801306BF93
:1003B80081F480110134013D4EE77FEA645C18BF87
:1003C8007FEA655C29D094EA050F08BF90EA020F1E
:1003D80005D054EA000C04BF1946104630BD91EA16
:1003E800030F1EBF0021002030BD5FEA545C05D119
:1003F8004000494128BF41F0004130BD14F5800458
:100408003CBF01F5801130BD01F0004545F0FE41CB
:1004180041F470014FF0000030BD7FEA645C1ABF00
:10042800194610467FEA655C1CBF0B46024650EA37
:10043800013406BF52EA033591EA030F41F4002163
:1004480030BD00BF90F0000F04BF0021704730B5E9
:100458004FF4806404F132044FF000054FF00001BE
:1004680050E700BF90F0000F04BF0021704730B57F
:100478004FF4806404F1320410F0004548BF404254
:100488004FF000013EE700BF42004FEAE2014FEAA9
:1004980031014FEA02701FBF12F07F4393F07F4F84
:1004A80081F06051704792F0000F14BF93F07F4FB6
:1004B800704730B54FF4607401F0004521F00041F9
:1004C80020E700BF50EA010208BF704730B54FF07F
:1004D80000050AE050EA010208BF704730B511F084
:1004E800004502D5404261EB41014FF4806404F1BC
:1004F80032045FEA915C3FF4DCAE4FF003025FEA3E
:10050800DC0C18BF03325FEADC0C18BF033202EBC5
:10051800DC02C2F1200300FA03FC20FA02F001FA1F
:1005280003FE40EA0E0021FA02F11444C1E600BFBE
:1005380070B54FF0FF0C4CF4E06C1CEA11541DBF71
:100548001CEA135594EA0C0F95EA0C0F00F0DEF83C
:100558002C4481EA030621EA4C5123EA4C5350EA21
:10056800013518BF52EA033541F4801143F4801372
:1005780038D0A0FB02CE4FF00005E1FB02E506F003
:100588000042E0FB03E54FF00006E1FB03569CF058
:10059800000F18BF4EF0010EA4F1FF04B6F5007F5E
:1005A80064F5407404D25FEA4E0E6D4146EB0606D0
:1005B80042EAC62141EA55514FEAC52040EA5E5059
:1005C8004FEACE2EB4F1FD0C88BFBCF5E06F1ED803
:1005D800BEF1004F08BF5FEA500E50F1000041EB3A
:1005E800045170BD06F0004646EA010140EA0200E7
:1005F80081EA0301B4EB5C04C2BFD4EB0C0541EA09
:10060800045170BD41F480114FF0000E013C00F31D
:10061800AB8014F1360FDEBF002001F0004170BD41
:10062800C4F10004203C35DA0C341BDC04F114045A
:10063800C4F1200500FA05F320FA04F001FA05F2E6
:1006480040EA020001F0004221F0004110EBD370B3
:1006580021FA04F642EB06015EEA430E08BF20EADF
:10066800D37070BDC4F10C04C4F1200500FA04F382
:1006780020FA05F001FA04F240EA020001F0004114
:1006880010EBD37041F100015EEA430E08BF20EA87
:10069800D37070BDC4F1200500FA05F24EEA020ECF
:1006A80020FA04F301FA05F243EA020321FA04F0FE
:1006B80001F0004121FA04F220EA020000EBD370B5
:1006C8005EEA430E08BF20EAD37070BD94F0000FB5
:1006D8000FD101F00046400041EB010111F4801FE9
:1006E80008BF013CF7D041EA060195F0000F18BF9A
:1006F800704703F00046520043EB030313F4801FD6
:1007080008BF013DF7D043EA0603704794EA0C0F8F
:100718000CEA135518BF95EA0C0F0CD050EA4106A5
:1007280018BF52EA4306D1D181EA030101F0004122
:100738004FF0000070BD50EA410606BF104619464A
:1007480052EA430619D094EA0C0F02D150EA013656
:1007580013D195EA0C0F05D152EA03361CBF104697
:1007680019460AD181EA030101F0004141F0FE4136
:1007780041F470014FF0000070BD41F0FE4141F4BA
:10078800780170BD70B54FF0FF0C4CF4E06C1CEABA
:1007980011541DBF1CEA135594EA0C0F95EA0C0F6F
:1007A80000F0A7F8A4EB050481EA030E52EA03352A
:1007B8004FEA013100F088804FEA03334FF080554B
:1007C80045EA131343EA12634FEA022245EA111578
:1007D80045EA10654FEA00260EF000419D4208BF29
:1007E800964244F1FD0404F5407402D25B084FEAD6
:1007F8003202B61A65EB03055B084FEA32024FF482
:1008080080104FF4002CB6EB020E75EB030E22BFDE
:10081800B61A754640EA0C005B084FEA3202B6EB9E
:10082800020E75EB030E22BFB61A754640EA5C004D
:100838005B084FEA3202B6EB020E75EB030E22BFDD
:10084800B61A754640EA9C005B084FEA3202B6EBDE
:10085800020E75EB030E22BFB61A754640EADC009D
:1008680055EA060E18D04FEA051545EA16754FEAFF
:1008780006164FEAC30343EA52734FEAC2025FEA1D
:100888001C1CC0D111F4801F0BD141EA00014FF0AC
:1008980000004FF0004CB6E711F4801F04BF01437D
:1008A8000020B4F1FD0C88BFBCF5E06F3FF6AFAE99
:1008B800B5EB030C04BFB6EB020C5FEA500C50F129
:1008C800000041EB045170BD0EF0004E4EEA1131AC
:1008D80014EB5C04C2BFD4EB0C0541EA045170BDB3
:1008E80041F480114FF0000E013C90E645EA060EF7
:1008F8008DE60CEA135594EA0C0F08BF95EA0C0F25
:100908003FF43BAF94EA0C0F0AD150EA01347FF46C
:1009180034AF95EA0C0F7FF425AF104619462CE743
:1009280095EA0C0F06D152EA03353FF4FDAE1046A6
:10093800194622E750EA410618BF52EA43067FF4F7
:10094800C5AE50EA41047FF40DAF52EA43057FF487
:10095800EBAE12E74FF0FF3C06E000BF4FF0010C92
:1009680002E000BF4FF0010C4DF804CD4FEA410CF6
:100978007FEA6C5C4FEA430C18BF7FEA6C5C1BD0C3
:1009880001B050EA410C0CBF52EA430C91EA030F44
:1009980002BF90EA020F0020704710F1000F91EAA1
:1009A800030F58BF994208BF90422CBFD8176FEA6F
:1009B800E37040F0010070474FEA410C7FEA6C5C3D
:1009C80002D150EA013C07D14FEA430C7FEA6C5C44
:1009D800D6D152EA033CD3D05DF8040B704700BF70
:1009E8008446104662468C461946634600E000BFBE
:1009F80001B5FFF7B7FF002848BF10F1000F01BD90
:100A08004DF808EDFFF7F4FF0CBF012000205DF85A
:100A180008FB00BF4DF808EDFFF7EAFF34BF0120DF
:100A280000205DF808FB00BF4DF808EDFFF7E0FF78
:100A380094BF012000205DF808FB00BF4DF808EDC9
:100A4800FFF7CEFF94BF012000205DF808FB00BF30
:100A58004DF808EDFFF7C4FF34BF012000205DF812
:100A680008FB00BF4FEA410212F5001215D211D55A
:100A78006FF47873B3EB625212D94FEAC12343F093
:100A8800004343EA505311F0004F23FA02F018BF15
:100A9800404270474FF00000704750EA013005D1DE
:100AA80011F0004008BF6FF0004070474FF00000A1
:100AB800704700BF4A0011D212F5001211D20DD5AD
:100AC8006FF47873B3EB62520ED44FEAC12343F04C
:100AD800004343EA505323FA02F070474FF00000F6
:100AE800704750EA013002D14FF0FF3070474FF0A5
:100AF8000000704738B50E4A0E4B054618784FF47B
:100B08007A73B3FBF0F31068B0FBF3F000F08CF8E5
:100B1800044658B90F2D09D8024629464FF0FF3030
:100B280000F042F8044B20461D6038BD012038BD56
:100B3800080000200000002004000020074A08B533
:100B4800136843F010031360032000F01BF8002023
:100B5800FFF7D0FF01F0C8FA002008BD00200240CE
:100B6800034A044B11681B780B441360704700BF9D
:100B78009000002000000020014B1868704700BF5B
:100B880090000020074AD36823F4E0631B041B0C81
:100B980043F0BF63000243F4003300F4E060034312
:100BA800D360704700ED00E0174B30B5DC68C4F344
:100BB8000224C4F10703251D042B28BF0423062D96
:100BC8004FF0010505FA03F303F1FF338CBF033C33
:100BD80000241940A14005FA04F4013C22400028F1
:100BE80042EA01024FEA0212AFBF00F1604000F092
:100BF8000F00064BD2B2A5BF00F56140D2B21A541D
:100C080080F8002330BD00BF00ED00E014ED00E0E7
:100C18004209012300F01F0003FA00F0014B43F8DA
:100C28002200704700E100E00138B0F1807F0AD26D
:100C3800064B074A5860F02182F82310002007224B
:100C480098601A6070470120704700BF10E000E00C
:100C580000ED00E010B5044668B1037903F0FF0227
:100C680013B9427101F058FA0223237100200123BD
:100C78002061237110BD012010BD13B50024006848
:100C88000194019041B9019908310A440192019AED
:100C98000020136002B010BD01991431F5E74379C3
:100CA800012B10B54FF0020315D003710368012220
:100CB8001C6842718A4022431A601A6869B902F0B6
:100CC8003C023C2A03D15A6842F001025A600123CF
:100CD800037100234371184610BD02F47012B2F577
:100CE800701FF4D15A6842F00202EFE74379012BF2
:100CF80070B54FF002031BD005680371114B2C68C7
:100D08009D420B6816D1AAB924F47F64496824F07F
:100D18000E040B43934023432B602B68C02101FA38
:100D280002F223EA020201232A60037100234371BD
:100D3800184670BD40F6FE76964024EA0604896897
:100D4800E7E700BF007400402DE9F04F85B00B685D
:100D5800DFF86481564A01934FF00F090023019C84
:100D6800DC4002D105B0BDE8F08F012404FA03FA93
:100D7800019C14EA0A0500F093804C6824F0100BDB
:100D8800BBF1020F11D1DF0800EB870703F0070E54
:100D98003E6A4FEA8E0E09FA0EFC26EA0C0C0E6922
:100DA80006FA0EF646EA0C063E624FEA430C0327A3
:100DB800066807FA0CF7FF4304F0030E3E400EFAEC
:100DC8000CFE0BF1FF3B4EEA0606BBF1010F066075
:100DD80011D8866806EA070BCE6806FA0CFE4EEABA
:100DE8000B068660466826EA0A0AC4F300169E4087
:100DF80046EA0A064660C66837408E6806FA0CF668
:100E08003743E600C7604BD5D8F8186046F00106AE
:100E1800C8F81860D8F8186023F0030707F180476E
:100E280006F0010607F58037039603F0030E039ECC
:100E3800BE684FEA8E0E09FA0EFCB0F1904F26EA12
:100E48000C0C2FD01B4EB0422ED006F58066B04257
:100E58002CD006F58066B04214BF0526032606FA94
:100E68000EF646EA0C06BE601668EF4314F4803F9F
:100E78000CBF3E402E431660566814F4003F0CBF6A
:100E88003E402E435660966814F4801F0CBF3E40C7
:100E98002E439660D668A40254BF3E402E43D660C7
:100EA80001335CE70026DAE70126D8E70226D6E711
:100EB8000004014000040048001002400AB18161AA
:100EC80070478162704700002DE9F347054618B95D
:100ED800012002B0BDE8F0870368DA0711D42B6857
:100EE8009B0700F185802B681C0700F1F6802B68B2
:100EF800580700F13F81EA69002A40F0D6810020B6
:100F0800E7E7BA4C636803F00C03042B07D0636867
:100F180003F00C03082B16D16368DF0313D54FF4D5
:100F2800003393FAA3F2216893FAA3F3B3FA83F395
:100F380003F01F03012202FA03F30B42CFD06B68C0
:100F4800002BCCD1C4E76A68B2F5803F25D123686D
:100F580043F480332360E36AA96823F00F030B434B
:100F6800E36252B3FFF708FE4FF4003680460127CC
:100F780096FAA6F3226896FAA6F3B3FA83F303F077
:100F88001F0307FA03F31342A9D1FFF7F5FDA0EBFE
:100F980008006428ECD903209BE7236832B923F4BE
:100FA80080332360236823F48023D3E7B2F5A02F8E
:100FB800F5D143F480232360C9E7FFF7DDFD4FF443
:100FC80000368046012796FAA6F3226896FAA6F319
:100FD800B3FA83F303F01F0307FA03F313423FF452
:100FE8007EAFFFF7C9FDA0EB08006428EBD9D2E774
:100FF8007E4C636813F00C0F07D0636803F00C0392
:10100800082B22D16368DE031FD4022393FAA3F2CC
:10101800216893FAA3F3B3FA83F303F01F030122C1
:1010280002FA03F30B4203D02B6993427FF450AFCB
:101038002168F82393FAA3F3B3FA83F26B69934018
:1010480021F0F802134323604DE72A6901260AB309
:1010580096FAA6F3B3FA83F303F1845303F58413E2
:101068009B0002271E60FFF787FD804697FAA7F3CB
:10107800226897FAA7F3B3FA83F303F01F0306FA7B
:1010880003F31342D4D1FFF777FDA0EB0800022841
:10109800ECD980E796FAA6F3B3FA83F303F1845305
:1010A80003F584139B0002271A60FFF765FD80464D
:1010B80097FAA7F3226897FAA7F3B3FA83F303F032
:1010C8001F0306FA03F313423FF40DAFFFF754FD75
:1010D800A0EB08000228EBD95DE7AA69434E444912
:1010E80001241AB394FAA4F3B3FA83F30B449B00D4
:1010F80002271C60FFF740FD804697FAA7F397FA8E
:10110800A7F397FAA7F3726A97FAA7F3B3FA83F3E8
:1011180003F01F0304FA03F313427FF4E8AEFFF76A
:101128002BFDA0EB08000228E7D934E794FAA4F3D2
:10113800B3FA83F30B449B0002271A60FFF71CFDE8
:10114800804697FAA7F397FAA7F397FAA7F3726A74
:1011580097FAA7F3B3FA83F303F01F0304FA03F330
:1011680013423FF4C4AEFFF707FDA0EB08000228C6
:10117800E7D910E71D4CE369D90034D4E36943F09B
:101188008053E361E36903F080530193019B0126D7
:10119800184F3B68DA052FD5EB68012B3DD1236A40
:1011A80043F001032362FFF7E7FC02278246B946B2
:1011B8004FF0010897FAA7F397FAA7F3002B6CD022
:1011C800226A99FAA9F3B3FA83F303F01F0308FA22
:1011D80003F3134258D0002E3FF48DAEE36923F099
:1011E8008053E36187E60026D2E700BF0010024083
:1011F80020819010007000403B6843F480733B608E
:10120800FFF7BAFC80463B68DB05C5D4FFF7B4FCA2
:10121800A0EB08006428F6D9BDE63BBB236A23F09F
:1012280001032362236A23F004032362FFF7A4FC6B
:1012380002278246B9464FF0010897FAA7F397FAB2
:10124800A7F373B3226A99FAA9F3B3FA83F303F005
:101258001F0308FA03F31342BDD0FFF78DFC41F2D8
:101268008833A0EB0A009842E7D994E6052B236A55
:1012780003D143F00403236291E723F001032362BF
:10128800236A23F004038DE7FFF776FC41F28833E5
:10129800A0EB0A0098428DD97DE697FAA7F3626A17
:1012A8008FE797FAA7F3626ACDE7414C636803F0CA
:1012B8000C03082B3FF40CAE022A4FF0807352D176
:1012C80093FAA3F3B3FA83F303F1845303F5841376
:1012D8009B0000221A60FFF74FFC4FF00077804612
:1012E800012697FAA7F3226897FAA7F3B3FA83F3CC
:1012F80003F01F0306FA03F313422DD162686B6AE9
:10130800296A22F474120B43134363604FF080730D
:1013180093FAA3F3B3FA83F303F1845303F5841325
:101328009B004FF000751E60FFF726FC012607465C
:1013380095FAA5F3226895FAA5F3B3FA83F303F0B7
:101348001F0306FA03F313427FF4D9ADFFF714FC29
:10135800C01B0228ECD91EE6FFF70EFCA0EB080024
:101368000228BED917E693FAA3F3B3FA83F303F17D
:10137800845303F584139B0000221A60FFF7FCFBDB
:101388004FF000750746012695FAA5F3226895FAED
:10139800A5F3B3FA83F303F01F0306FA03F313422A
:1013A8003FF4ADADFFF7E8FBC01B0228ECD9F2E52E
:1013B8000010024010B5134C616801F00C03082BB3
:1013C8001ED14FF4701393FAA3F301F47012B3FA19
:1013D80083F322FA03F30C4AD05CE36A0F2292FAF1
:1013E800A2F2B2FA82F203F00F03D340074AD25CAA
:1013F800CB034ABF064B074BB3FBF2F3584310BD70
:10140800034810BD00100240283400083834000892
:1014180000127A0000093D002DE9F0410D4604460E
:1014280010B90120BDE8F0814C4A136803F00703A6
:101438008B422ED32268910736D4D2073CD4474A30
:10144800136803F007039D4275D32268444D12F0D8
:10145800040F7CD1130706D56B68226923F4605307
:1014680043EAC2036B60FFF7A5FF6B68F02292FAAC
:10147800A2F2B2FA82F203F0F003D340394AD35C05
:10148800D840394B18600020FFF734FB0020BDE836
:10149800F081136823F007030B431360136803F00C
:1014A80007039942BDD1C5E72D49A0684B6823F0D1
:1014B800F00303434B60C0E76268294E012A27D135
:1014C8004FF4003393FAA3F1316893FAA3F3B3FA14
:1014D80083F303F01F0302FA03F30B42A1D07368EE
:1014E80023F003031A437260FFF746FB41F2883882
:1014F80007467368626803F00C03B3EB820F9ED053
:10150800FFF73AFBC01B4045F3D90320BDE8F08143
:10151800022A0CBF4FF00073022393FAA3F130683C
:1015280093FAA3F3B3FA83F303F01F03012101FA3B
:1015380003F30342D2E7136823F007032B43136036
:10154800136803F007039D427FF46BAF7DE76B6878
:10155800E16823F4E0630B436B607BE70020024003
:10156800001002404C34000808000020084B4FF4DB
:10157800E0625B6892FAA2F2B2FA82F203F4E063E4
:10158800D340044AD35C044A1068D840704700BF6F
:10159800001002405C34000808000020084B4FF49B
:1015A80060525B6892FAA2F2B2FA82F203F46053D4
:1015B800D340044AD35C044A1068D840704700BF3F
:1015C800001002405C3400080800002003682DE980
:1015D800F3470546D80320D5504CE369D90044D4D5
:1015E800E36943F08053E361E36903F080530193B7
:1015F800019B01264A4F3B68DA0538D5236A13F464
:10160800407348D1236A6A6823F440731343236202
:101618001EB1E36923F08053E3612868C10706D54A
:101628003E4AA968136B23F003030B431363820636
:1016380006D53A4AE968136B23F010030B4313638A
:10164800030606D5354A2969D36A23F4F8730B4390
:10165800D36210F480501BD0304A6969136B23F4AD
:1016680080730B431363002012E00026C2E73B6837
:1016780043F480733B60FFF77FFA80463B68DB05E5
:10168800BCD4FFF779FAA0EB08006428F6D9032048
:1016980002B0BDE8F0876A6802F440729342B1D0A4
:1016A800216A4FF4803321F4407093FAA3F2DFF8F3
:1016B80074E0B2FA82F2724492000127176093FA3A
:1016C800A3F3B3FA83F373449B0000221A602062E9
:1016D800C80797D5FFF750FA4FF002088246C1466F
:1016E80098FAA8F398FAA8F39BB1226A99FAA9F391
:1016F800B3FA83F303F01F0307FA03F3134281D10C
:10170800FFF73AFA41F28833A0EB0A009842E7D98A
:10171800BDE798FAA8F3626AE8E700BF0010024044
:1017280000700040008190100368DA6842F00102FE
:10173800DA601A6842F001021A60002070477047A8
:1017480070477047704703681A69910710B50446D7
:101758000FD5DA6892070CD56FF002021A619B69FF
:1017680001229907027700F08580FFF7E9FF00233F
:10177800237723681A69520710D5DA6850070DD500
:101788006FF004021A619B69022213F4407F2277EA
:10179800204675D0FFF7D4FF0023237723681A6902
:1017A80011070FD5DA6812070CD56FF008021A6115
:1017B800DB6904229B072277204667D0FFF7C0FF2A
:1017C8000023237723681A69D00610D5DA68D10672
:1017D8000DD56FF010021A61DB69082213F4407FFF
:1017E8002277204658D0FFF7ABFF002323772368E2
:1017F8001A69D20708D5DA68D00705D56FF0010253
:101808001A61204600F068FC23681A69110608D599
:10181800DA68120605D56FF080021A61204600F0DA
:101828008AF923681A69D00508D5DA68110605D53A
:101838006FF480721A61204600F07EF923681A69F5
:10184800520608D5DA68500605D56FF040021A61CD
:101858002046FFF777FF23681A69910622D5DA68D0
:1018680092061FD56FF0200220461A61BDE810408D
:1018780000F060B9FFF763FF2046FFF762FF76E7E5
:10188800FFF75DFF2046FFF75CFF85E7FFF757FF8F
:101898002046FFF756FF93E7FFF751FF2046FFF773
:1018A80050FFA2E710BD0000214A0368904210B51E
:1018B80005D0B0F1804F02D01E4CA0420CD14C682C
:1018C80023F07003904243EA040310D0B0F1804F34
:1018D8000DD0184A90420AD0174A904207D002F514
:1018E8008062904203D002F58062904203D1CA68B8
:1018F80023F4407313434A6923F0800313430360BE
:101908008B68C3620B688362094B98420BD003F55E
:10191800A053984207D003F58063984203D003F59B
:101928008063984201D10B6903630123436110BDB1
:10193800002C0140000400400040014010B504465E
:10194800A0B190F83D3003F0FF021BB980F83C20AD
:1019580000F010FC022384F83D302068211DFFF7B9
:10196800A3FF012384F83D30002010BD012010BDE5
:1019780010B584680A4324F47F4442EA03232343CE
:10198800836010BD90F83C30012B70B504464FF0D1
:1019980002001AD084F83D002068012384F83C3006
:1019A8008268524B134083600B68402B75D018D85F
:1019B800102B00F08F8009D8002B00F085800123C0
:1019C800002084F83D3084F83C0070BD202B00F0E6
:1019D8008780302BF3D1836823F0700343F03703FB
:1019E80033E0702B33D01BD8502B3FD0602BE6D17F
:1019F8004D68CE68016A21F0100101628269036AAC
:101A080022F4704223F0A00343EA051342EA0632A7
:101A180082610362836823F0700343F0670314E074
:101A2800B3F5805F0CD0B3F5005FC8D1CB684A68C6
:101A38008968FFF79DFF2268936843F4804313E0A9
:101A4800836823F4803323F007038360B7E7CB6808
:101A58004A688968FFF78CFF2268936823F480330B
:101A680023F0770343F077039360A8E74A68CE68CA
:101A7800016A056A25F001050562836921F00A01FA
:101A880023F0F00343EA06130A4383610262836882
:101A980023F0700343F05703D7E74A68CE68016A1A
:101AA800056A25F001050562836921F00A0123F022
:101AB800F00343EA06130A4383610262836823F052
:101AC800700343F04703C0E7836823F0700343F0D3
:101AD8000703BAE7836823F0700343F01703B4E7FA
:101AE800836823F0700343F02703AEE78800FEFF06
:101AF80090F83C30012B30B518D002680C4D536873
:101B08009468AA4202BF4D6823F470032B430D6802
:101B1800896823F070032B4324F080045360214329
:101B28000023916080F83C30184630BD022030BD5B
:101B3800002C0140704770477047000038B50446D4
:101B480005682169A368C26928680B4361690B436A
:101B58004949134301400B432B606B68E168206AD5
:101B680023F440530B436B60A968A36921F43061E7
:101B780003430B43AB60414B9D4212D103F55843DD
:101B88003F491B6B03F00303B2F5004FCB5C3BD11D
:101B9800082B36D8DFE803F00F2124352D353535ED
:101BA8003000384B9D4203D003F580639D425ED1DF
:101BB800B2F5004F31D1FFF7D9FC61684A0802EB52
:101BC8004003B3FBF1F39BB2002023F00F0221681E
:101BD800C3F342031343CB6038BDFFF7DFFCECE7E8
:101BE8006068430803F5740303F51053B3FBF0F37F
:101BF800E9E7FFF7DFFBE0E76068430803F58033B8
:101C0800F4E701200023E0E7082B33D8DFE803F0EE
:101C180005101B32273232322A00FFF7A7FC63680F
:101C280000EB5300B0FBF3F080B2E860002038BD51
:101C3800FFF7B4FC636800EB5300B0FBF3F00F4B05
:101C480080B2D860F2E76268530803F5F40303F53D
:101C58009053B3FBF2F3094A9BB2D360E6E7FFF770
:101C6800A9FBE7E76268530803F50043F1E7B2F51B
:101C7800004FC6D0012038BDF369FFEF003801409E
:101C88004834000800440040436ADA0710B506D516
:101C98000168846A4A6822F4003222434A609C0739
:101CA80006D50168C46A4A6822F4803222434A6031
:101CB800590706D50168046B4A6822F4802222433A
:101CC8004A601A0706D50168446B4A6822F4004244
:101CD80022434A60DC0606D50168846B8A6822F4D0
:101CE800805222438A60990606D50168C46B8A68C7
:101CF80022F4005222438A605A060FD50168046C08
:101D08004A6822F480122243B4F5801F4A6005D144
:101D18004A68446C22F4C00222434A601B0606D576
:101D28000268816C536823F400230B43536010BD91
:101D38002DE9F041069D04460F461646984621684F
:101D4800CA6937EA02030CBF01220022B24202D05C
:101D58000020BDE8F0816B1CF2D09DB923681A6899
:101D680022F4D0721A609A6822F001029A60202345
:101D780084F8693084F86A30002384F868300320D6
:101D8800BDE8F081FEF7F8FEA0EB08008542D6D248
:101D9800E4E773B504460026C666FEF7EDFE236841
:101DA8001B681A07054617D423681B685B070AD502
:101DB8006FF07E43009300222B464FF480012046AB
:101DC800FFF7B6FFA0B92023002084F8693084F813
:101DD800680084F86A300CE06FF07E430093324666
:101DE80003464FF400112046FFF7A2FF0028DBD07E
:101DF800032002B070BD10B5044660B390F8693096
:101E080003F0FF021BB980F8682000F0CFF92268C0
:101E1800242384F86930136823F0010313602046F3
:101E2800FFF78CFE012816D0636A13B12046FFF72E
:101E38002BFF23685A6822F490425A609A6822F06D
:101E48002A029A601A6842F0010220461A60BDE828
:101E58001040FFF79EBF012010BD70B596B0282234
:101E680000210CA800F084FA1422002101A800F037
:101E78007FFA18220DEB0200002100F079FA1023F6
:101E88000224012611930CA84FF4601315930C94A7
:101E980010961394FFF718F80F2300250193214695
:101EA8004FF4806301A80493029403950595FFF706
:101EB800B3FA06A806960895FFF788FB16B070BD1A
:101EC80010B5094C094B2278094833F81230002222
:101ED8001146FEF7D2FE23780133DBB2312B88BFDF
:101EE8000023237010BD00BF280000202A00002016
:101EF80094000020000000002DE9F84F0FF2780947
:101F0800D9E90089184FDFF878B0184D4FF0000A6A
:101F1800002600245046FEF7A5FA42464B46FEF737
:101F280007FB32463B46FEF72DFC41EC100B00F058
:101F380027FA224651EC100B2B46FEF747F90022F0
:101F48000B4BFEF7F5FA00220A4BFEF7F1FAFEF703
:101F5800B1FD2BF80A000AF1020ABAF1640FD9D1CF
:101F6800BDE8F88FAFF30080000049400000F03F63
:101F78000000B0400000E03F6E861BF0F9210940E8
:101F88002A00002000B58DB0FEF7D8FDFFF765FFE9
:101F98001422002107A800F0EBF9464B46485A697D
:101FA800464E474D42F480025A615A6902F4800253
:101FB8000192019A5A6942F400325A615A6902F44C
:101FC80000320292029A5A6942F480225A615B698D
:101FD80003F48023002203930821039BFEF76EFF7E
:101FE8000823002407A90793334809940123089379
:101FF8000A94FEF7A9FE3348334A84604FF4164327
:1020080080E80C000C234361C46004618461C461EE
:1020180004624462FFF7EFFE2C4B336030460794AE
:1020280008940994FEF716FE224607A9304607943D
:102038000894FEF75BFE1022214607A800F098F9E5
:102048004FF0804147F6FF4385E80A0028465023B1
:10205800EB60049405940694AC602C61AC61FFF7C6
:102068006DFC4FF4805307A928460793FFF78AFCB5
:1020780004A9284604940694FFF73AFD1448154B22
:10208800846047F6122E80E8084004234361C46048
:1020980004618461C46104624462FFF7ACFE3220CB
:1020A800FFF72AFF21463046FEF7F9FD2846FFF7DD
:1020B8003BFBFEE7001002400004004894000020AB
:1020C800180100205801002000440040007400401E
:1020D800A800002000380140024B834201D1FFF7DD
:1020E800EFBE7047180100200A4B9A6942F00102BE
:1020F8009A619A6982B002F001020092009ADA6944
:1021080042F08052DA61DB6903F080530193019B4E
:1021180002B070470010024010B5044688B014227F
:10212800002103A800F024F92268114B9A421CD11F
:1021380003F5CE3303A9DA6942F00052DA61DA69AD
:1021480002F000520192019A5A6942F400325A612F
:102158005B6903F400330293029B102303934FF04F
:10216800904003230493FEF7EFFD08B010BD00BFB5
:10217800007400400368B3F1804F07B512D103F52E
:1021880004331C20DA6942F00102DA61DB690022BB
:1021980003F0010301931146019BFEF705FD1C2086
:1021A800FEF736FD03B05DF804FB000010B51422FD
:1021B8008AB0044600210DEB020000F0D9F823682C
:1021C8001F4A934222D11F4B9A6942F480429A6176
:1021D8009A6902F480420192019A5A6942F40032E3
:1021E8005A615B6903F400330293029B4FF4C063A6
:1021F8000593022306930323089305A907234FF0A9
:1022080090400993FEF7A0FD0AB010BD0E4A934214
:10221800FAD10C4BDA6942F40032DA61DA6902F475
:1022280000320392039A5A6942F400325A615B6998
:1022380003F400330493049B48F20403D8E700BF77
:102248000038014000100240004400407047FEE79B
:10225800FEE7FEE7FEE7704770477047FEF780BC71
:102268000148FFF770BA00BF180100201549D1F8DE
:10227800883043F47003C1F88830134B1A6842F071
:1022880001021A605868114A02405A601A6822F01E
:10229800847222F480321A601A6822F480221A604A
:1022A8005A6822F4FE025A60DA6A22F00F02DA62F1
:1022B800186B074A02401A6300229A604FF00063C5
:1022C8008B60704700ED00E0001002400CC07FF802
:1022D800CCFC00FFDFF834D0002103E00C4B5B5846
:1022E800435004310B480C4B42189A42F6D30B4A20
:1022F80002E0002342F8043B094B9A42F9D3FFF766
:10230800B5FF00F011F8FFF73DFEFEE700300020B2
:1023180048360008000000200C0000200C000020B7
:10232800C8010020FEE7000070B50D4E0D4CA41B3F
:10233800A4100025A54209D10B4E0C4C01F064F8FD
:10234800A41BA4100025A54205D170BD56F8253060
:1023580098470135EEE756F8253098470135F2E7FA
:102368004036000840360008403600084436000869
:1023780002440346934200D1704703F8011BF9E772
:102388001FB551EC100B204A21F00043934207DCA3
:102398009FED1B1B002000F067FE51EC100B07E0BF
:1023A8001A4A934209DD10EE102A0B46FDF70CFF7E
:1023B80041EC100B05B05DF804FB684600F028F806
:1023C80000F0030001289DED021B9DED000B04D0D9
:1023D800022805D070B90120DDE700F00DFADCE72E
:1023E800012000F041FE53EC102B10EE100A03F10F
:1023F8000041DDE700F000FAF5E700BFAFF3008029
:102408000000000000000000FB21E93FFFFFEF7F14
:102418002DE9F04F57EC106BC34B8DB027F00048F7
:1024280098450446049707DC0022002384ED000B3E
:10243800C0E90223002527E0BC4B984575DC049BC6
:10244800BB4D002B10EE100AA9A3D3E9002339468F
:1024580036DDFDF7B9FEA84506460F4618D0A6A3F7
:10246800D3E90023FDF7B0FE02460B46C4E900237A
:1024780030463946FDF7A8FE9FA3D3E90023FDF7B0
:10248800A3FEC4E90201012528460DB0BDE8F08F7E
:102498009BA3D3E90023FDF797FE9BA3D3E9002371
:1024A80006460F46FDF790FE02460B46C4E9002398
:1024B80030463946FDF788FE93A3D3E90023DEE7CB
:1024C800FDF784FEA84506460F4616D08AA3D3E931
:1024D8000023FDF77BFE02460B46C4E90023304685
:1024E8003946FDF771FE84A3D3E90023FDF76EFE9C
:1024F8004FF0FF35C4E90201C6E781A3D3E9002301
:10250800FDF764FE80A3D3E9002306460F46FDF7D6
:102518005DFE02460B46C4E9002330463946FDF706
:1025280053FE79A3D3E90023E0E7824B984500F3F3
:10253800D08000F053FE57EC106B10EE100A74A315
:10254800D3E900233946FDF7F3FF00227A4BFDF764
:102558003DFEFEF787FA0546FDF784FF64A3D3E93D
:102568000023CDE90201FDF7E3FF02460B463046A2
:102578003946FDF729FE60A3D3E9002382468B463E
:10258800DDE90201FDF7D4FF1F2D06460F462ADCC0
:102598006A1E6A4B53F82230984524D032463B468F
:1025A80050465946FDF710FEC4E90001D4E90089F8
:1025B800504642464B465946FDF706FE3B463246D4
:1025C800FDF702FE049B002BC4E90201BFF65CAFD5
:1025D80009F100436360C4F80080A06001F1004382
:1025E800E3606D4250E732463B4650465946FDF798
:1025F800EBFD4FEA2852C1F30A53D31A102BC4E952
:1026080000010592D2DD3EA3D3E90023DDE90201F2
:10261800FDF78EFF06460F4602460B4650465946C2
:10262800FDF7D2FD02460B4680468946504659467C
:10263800FDF7CAFD32463B46FDF7C6FD32A3D3E996
:10264800002306460F46DDE90201FDF771FF324619
:102658003B46FDF7B9FD02460B4606460F46404687
:102668004946FDF7B1FD059AC1F30A53D31A312B38
:10267800C4E900012ADD28A3D3E90023DDE902012A
:10268800FDF756FF06460F4602460B4640464946AA
:10269800FDF79AFD02460B4682468B464046494660
:1026A800FDF792FD32463B46FDF78EFD1CA3D3E9AC
:1026B800002306460F46DDE90201FDF739FF3246E1
:1026C8003B46FDF781FD06460F4667E7C246CB4607
:1026D8006CE71B4B984535DD10EE102A3B4630461B
:1026E8003946FDF771FDC4E90201C4E90001A1E61C
:1026F80000004054FB21F93F3163621A61B4D03DB8
:102708000000601A61B4D03D7370032E8A19A33B90
:1027180083C8C96D305FE43F0000002E8A19A33BCF
:10272800C14920259A837B39FB21E93F7BD90240A7
:10273800FB21F93FFB2139410000E03F64340008E8
:10274800FFFFEF7F4FEA2855A5F21645A8EB055184
:1027580030460F46FEF786F9FDF784FE02460B4623
:1027680030463946CDE90623FDF72EFD00221F4BE2
:10277800FDF7DEFE0F460646FEF774F9FDF772FE1A
:1027880002460B4630463946CDE90823FDF71CFDC5
:102798000022164BFDF7CCFECDE90A010DF13009F8
:1027A8004FF003080026002732463B4679E902012C
:1027B80008F1FF3AFEF724F9B0B90D4B0193022353
:1027C80000932A464346214606A800F0FDF8049BDC
:1027D800002B0546BFF658AE636803F100436360FB
:1027E800E36803F10043FBE6D046DDE700007041F3
:1027F800E4340008000000002DE9F04F59EC108B7C
:1028080029F0004785B0B7F1795F8DED001B07DA35
:1028180010EE100A4946FEF725F9002800F0AA80B4
:1028280042464B4640464946FDF782FE59A3D3E946
:10283800002304460D46FDF77BFE58A3D3E9002389
:10284800FDF7C4FC22462B46FDF772FE55A3D3E9DB
:102858000023FDF7B9FC22462B46FDF769FE53A37A
:10286800D3E90023FDF7B2FC22462B46FDF760FEB4
:1028780050A3D3E90023FDF7A7FC22462B46FDF71A
:1028880057FE4EA3D3E90023FDF7A0FC2B462246B2
:10289800FDF74EFE3A4B9F4282468B462CDC0022C7
:1028A800384B20462946FDF743FE524606460F465A
:1028B8005B4620462946FDF73BFEDDE9002304463A
:1028C8000D4640464946FDF733FE02460B46204674
:1028D8002946FDF779FC02460B4630463946FDF796
:1028E80073FC0B46284902460020FDF76DFC41ECBD
:1028F800100B05B0BDE8F08F244B23499F42D7BF8A
:10290800A7F50013224F00221646D4BF1F46002603
:1029180032463B460020FDF757FC0022CDE9020174
:10292800184B20462946FDF703FE32463B46FDF785
:102938004BFC524606460F465B4620462946FDF7A5
:10294800F7FDDDE9002304460D4640464946FDF7FC
:10295800EFFD02460B4620462946FDF735FC0246A8
:102968000B4630463946FDF72FFC02460B46DDE99B
:102978000201BAE700200449B9E700BFAFF30080BD
:102988003233D33F0000E03F0000F03F0000E93F52
:102998000000D23FD43888BEE9FAA8BDC4B1B4BD9E
:1029A8009EEE213EAD529C804F7E923E9015CB19F3
:1029B800A001FA3E7751C1166CC1563F4C5555558A
:1029C8005555A53F000000002DE9F04F2DED028B75
:1029D800ADF5197DD41E06930291C34BA4990990B5
:1029E80053F821300093069B013B0493182394FB72
:1029F800F3F46FF0170324EAE47404FB033303EBE6
:102A0800020A009B049A9FEDB48B03EB0208A59B76
:102A1800A71A20AE03EB87090025454513DD9FED76
:102A2800AE8B0DF5E07B0026009B9E4232DC099BB5
:102A38000393069B9D1920AB03EBC503089359EC40
:102A4800188B00271FE0EF4207D459F82500FDF73F
:102A580009FDE6E802010135DFE751EC180BF8E75C
:102A68000899039D71E902230891F5E8020103958D
:102A7800FDF75EFD02460B4640464946FDF7A6FBBC
:102A8800013780468946049B9F42E9DDEBE80289CD
:102A98000136C9E7009B009F0CAA02EB83030B9346
:102AA800A59B03EB84030A9398AB07F1005B03EB48
:102AB800C7030BF1FF3B53E928894FEACB0308937F
:102AC800089A98AB1344A3F1980B0026BB1B002B64
:102AD80077DC49EC108B504600F00EFC55EC104B9F
:102AE80000224FF07F5310EE100A2946FDF720FD13
:102AF80041EC100B00F07CFB002251EC100B7B4BDF
:102B0800FDF716FD02460B4620462946FDF75CFBFD
:102B18000D460446FDF7A6FF0390FDF7A3FC024609
:102B28000B4620462946FDF74FFBBAF1000F8046B9
:102B380089466BDD7A1E0CABCAF1180153F82200E6
:102B4800039C40FA01F31C448B40C01A0CAB03945D
:102B580043F82200CAF1170340FA03FBBBF1000F48
:102B680062DD039B00220133039314466FF07F411B
:102B7800974200F38980BAF1000F07DDBAF1010F1F
:102B880000F09680BAF1020F00F09C80BBF1020FB2
:102B98004AD142464B4600205549FDF715FB804671
:102BA8008946002C40D050469FED4D0B00F0A4FB09
:102BB8004046494653EC102BFDF706FB80468946F4
:102BC80032E000224B4B40464946FDF7B1FCFDF789
:102BD80049FFFDF747FC0022474B04460D46FDF729
:102BE800A7FC02460B4640464946FDF7EDFAFDF7BD
:102BF80039FF0CAB294643F826007BE9022320461F
:102C0800FDF7E4FA0136804689465FE706D17B1E68
:102C18000CAA52F823004FEAE05B9FE70022374BEB
:102C2800FDF70CFF68BB8346002200234046494657
:102C3800FDF7E6FE002800F0C1807C1E2346002236
:102C480000998B425CDA002A40F08B8001246FF0F7
:102C5800030202FB04F30B99CB58002B56D0089BB8
:102C680098AA1344A3F1900B069BDD1920AB03EB44
:102C7800C505E3197E1C0393039B9E4248DD1F464E
:102C880012E74FF0020B6CE70CAB53F822304CB94B
:102C98002BB10CA8C3F1807340F822300123013214
:102CA8001C4665E70CA8CB1A40F822302346F6E705
:102CB8007A1E0CAB53F82230C3F316030CA941F863
:102CC800223063E77A1E0CAB53F82230C3F31503A6
:102CD800F4E700BFAFF30080000000000000000030
:102CE800000000000000F03F3036000800002040DF
:102CF8000000F03F0000703E000070410000E03F1F
:102D08000CA951F82310013B0A4399E70134A0E7C5
:102D18000A9B53F82600FDF7A5FBE5E80201099B8D
:102D280008951C4600274FF000084FF00009049B47
:102D38009F4203DDEBE8028901369DE7089971E9B6
:102D480002230891F4E80201FDF7F2FB02460B4664
:102D580040464946FDF73AFA013780468946E6E794
:102D6800013C0CABAAF1180A53F82430002BF7D019
:102D780050469FEDB50B00F0BFFAE50098AB03EBAA
:102D8800050957EC106BA9F19809A046B8F1000F96
:102D98004DDA9FEDAF8B0DF5907A002304935746DB
:102DA800049BB4EB030976D4AB4B1E4670AB03EB24
:102DB800C9098DED068B4FF000085EE0CAF10000EE
:102DC80049EC108B00F098FA55EC104B0022A34BFD
:102DD80010EE100A2946FDF731FEF8B10022A04B8B
:102DE80020462946FDF7A4FBFDF73CFE0646FDF705
:102DF80039FB0022994BFDF79BFB0B4602462946FF
:102E08002046FDF7E1F9FDF72DFE7C1C0CAB0AF11D
:102E1800180A43F8270043F82460A9E72046294602
:102E2800FDF720FE0CAB3C4643F82700A0E70CABAF
:102E380053F82800FDF716FB32463B46FDF778FBB2
:102E4800002269E90201864B30463946FDF770FBDE
:102E580008F1FF3806460F4698E7F9E80223F6E836
:102E68000201FDF765FB02460B46DDE90601FDF7A9
:102E7800ADF9CDE9060108F10108009B984502DC8F
:102E8800049B9845E9DD049B9DED067B0133AAEC84
:102E9800027B049384E7A49B032B5DD8DFE803F04F
:102EA8004B26260298AB1D44A5F59C752E46A246D6
:102EB800BAF1000F6EDC2E46A246BAF1010F00F3FC
:102EC8008A8000200021012C00F3A680BBF1000FAE
:102ED80040F0A880DDE94823029CC4E90023DDE92D
:102EE8004A23C4E90401C4E9022335E0083548ABA4
:102EF8001D44264600200021002E3CDABBF1000FBD
:102F08003FD0024601F10043029DC5E90023024675
:102F18000B46DDE94801FDF757F94AAE0125AC42F9
:102F280032DABBF1000F02D001F100431946029BCF
:102F3800C3E9020110E098AB1D44A5F59C7500207B
:102F48000021002C11DABBF1000F02D001F100437F
:102F58001946029BC3E90001039B03F007000DF526
:102F6800197DBDEC028BBDE8F08F75E90223FDF7F2
:102F78002DF9013CE5E775E90223FDF727F9013E44
:102F8800BAE702460B46BFE7F6E80223FDF71EF94B
:102F98000135C4E716ED027B56E9048953EC172B7B
:102FA800404649468DED007BFDF710F9CDE9040157
:102FB80002460B4640464946FDF706F9DDE900237F
:102FC800FDF704F99DED047B66E902010AF1FF3A79
:102FD80006ED027B6CE716ED027B56E9048953EC9B
:102FE800172B404649468DED007BFDF7EFF8CDE9FC
:102FF800040102460B4640464946FDF7E5F8DDE97F
:103008000023FDF7E3F89DED047B66E902010AF170
:10301800FF3A06ED027B50E775E90223FDF7D6F883
:10302800013C50E7029A3B6813607B68106103F12A
:1030380000435360BB689360FB6803F10043D360AF
:1030480001F10043536187E7000000000000F03FF2
:103058000000000000000000F0350008000070418A
:103068000000703E000000002DE9F04F55EC104BB9
:1030780085B025F00043B3F1795F8DED001B029018
:1030880006DA10EE100A2946FDF7ECFC002851D0AC
:1030980022462B4620462946FDF74AFA82468B46A9
:1030A80002460B4620462946FDF742FA41A3D3E9DA
:1030B80000238046894650465946FDF739FA3FA312
:1030C800D3E90023FDF780F852465B46FDF730FA56
:1030D8003CA3D3E90023FDF779F852465B46FDF798
:1030E80027FA3AA3D3E90023FDF76EF852465B4668
:1030F800FDF71EFA37A3D3E90023FDF767F8029B13
:1031080006460F46DBB902460B4650465946FDF7C0
:103118000FFA25A3D3E90023FDF756F842464B469C
:10312800FDF706FA02460B4620462946FDF74EF8FB
:1031380004460D4645EC104B05B0BDE8F08F002263
:103148001B4BDDE90001FDF7F3F93246CDE9020139
:103158003B4640464946FDF7EBF902460B46DDE99A
:103168000201FDF731F852465B46FDF7E1F9DDE96A
:103178000023FDF729F80CA3D3E9002306460F46E0
:1031880040464946FDF7D4F902460B4630463946D3
:10319800FDF71CF802460B4620462946FDF714F8B1
:1031A800C6E700BFAFF30080495555555555C53F93
:1031B8000000E03F7CD5CF5A3AD9E53DEB9C2B8AFD
:1031C800E6E55A3E7DFEB157E31DC73ED561C119FC
:1031D800A0012A3FA6F810111111813F53EC102BC2
:1031E80023F0004343EC102B704700000000000060
:1031F80051EC100B2DE9F041C1F30A57A7F2FF3645
:10320800132E10EE108A0C4610EE105A35DC002EE4
:1032180017DA35A3D3E90023FCF7D8FF00220023EF
:10322800FDF716FC50B1002C5ADA24F0004353EA9B
:1032380008032F4B4FF0000518BF1C4621462846AF
:1032480025E02C4F374101EA070303431FD026A38B
:10325800D3E90023FCF7BAFF00220023FDF7F8FBAF
:103268000028EBD0002CBEBF4FF4801343FA06F6BB
:10327800A41924EA07040025E0E7332E0BDDB6F590
:10328800806F04D110EE102A0B46FCF79FFF41EC2B
:10329800100BBDE8F081A7F213474FF0FF3323FA74
:1032A80007F73842F3D010A3D3E90023FCF78EFFC9
:1032B80000220023FDF7CCFB0028BFD0002C02DA47
:1032C800142E03D1013425EA0705B7E70123C6F117
:1032D800340603FA06F63544A84588BFE418F2E731
:1032E80000252C46AAE700BF9C7500883CE4377E81
:1032F8000000F0BFFFFF0F0070B555EC104BC5F391
:103308000A5206462B46B2B925F0004323433CD067
:103318000022334B294610EE100AFDF709F9314A0D
:10332800964204460D460B4613DA29A3D3E9002337
:10333800FDF7FEF80AE040F2FF718A420CD110EE68
:10334800102A2B4620462946FCF740FF04460D4626
:103358001BE0C1F30A52363A324440F2FE718A4207
:103368000BDD45EC114B9FED1C0B00F03FF81AA349
:10337800D3E9002351EC100BDAE7002A08DD23F02B
:10338800FF4323F4E00343EA025545EC104B70BDBC
:1033980012F1350F0DDA4CF250339E4245EC114BC9
:1033A800E1DC9FED0B0B00F021F809A3D3E9002322
:1033B800E0E723F0FF43363223F4E00343EA025503
:1033C800204629460022084BB2E700BFAFF3008031
:1033D80059F3F8C21F6EA5019C7500883CE4377E3E
:1033E80000005043B03CFFFF0000903C53EC102B12
:1033F80011EE900A23F0004100F0004041EA00037A
:1034080043EC102B70470000F8B500BFF8BC08BCAF
:103418009E467047F8B500BFF8BC08BC9E4670478A
:1034280002030405060708090A0B0C0D0E0F1010FD
:103438000102030405060708090A0B0C0D0E0F10FC
:10344800000408020000000000000000010203045C
:10345800060708090000000001020304FB21F93FE8
:10346800FB2109407CD91240FB2119407A6A1F4090
:103478007CD92240BBFD2540FB2129403A462C40FF
:103488007A6A2F405C4731407CD932409C6B34408B
:10349800BBFD3540DB8F3740FB2139401BB43A4038
:1034A8003A463C405AD83D407A6A3F404C7E4040BC
:1034B8005C4741406C1042407CD942408CA243405A
:1034C8009C6B4440AC344540BBFD4540CBC64640B0
:1034D800DB8F4740EB584840FB21494083F9A20065
:1034E800444E6E00FC291500D1572700DD34F50045
:1034F80062DBC0003C999500419043006351FE0097
:10350800BBDEAB00B761C5003A6E2400D24D420065
:103518004906E00009EA2E001C92D100EB1DFE00CE
:1035280029B11C00E83EA700F535820044BB2E00F7
:103538009CE98400B4267000417E5F00D691390072
:10354800538339009CF439008B5F840028F9BD004F
:10355800F81F3B00DEFF97000F980500112FEF00C2
:103568000A5A8B006D1F6D00CF7E360009CB2700ED
:10357800464FB7009E663F002DEA5F00BA277500E8
:10358800E5EBC7003D7BF100F739070092528A004E
:10359800FB6BEA001FB15F00085D8D003003560029
:1035A8007BFC4600F0AB6B0020BCCF0036F49A00E1
:1035B800E3A91D005E619100081BE600859965007E
:1035C800A0145F008D40680080D8FF0027734D006D
:1035D80006063100CA561500C9A873007BE26000D0
:1035E8006B8CC0000000000000000040FB21F93F88
:1035F800000000002D44743E000000809846F83C0E
:103608000000006051CC783B00000080831BF0393B
:103618000000004020257A38000000802282E3362E
:10362800000000001DF369350200000003000000DF
:08363800040000000600000080
:04364000AD010008D0
:0436440089010008F0
:0C364800010000001000000000127A00D9
:04000005080022DDF0
:00000001FF
