:020000040800F2
:10000000003000203D120008C1110008C311000893
:10001000C5110008C7110008C91100080000000040
:10002000000000000000000000000000CB110008EC
:10003000CD11000800000000CF110008D111000808
:100040008D1200088D1200088D1200088D12000814
:100050008D1200088D1200088D1200088D12000804
:100060008D1200088D1200088D1200088D120008F4
:100070008D1200088D1200088D1200088D120008E4
:100080008D1200088D1200088D1200088D120008D4
:100090008D1200088D1200088D1200088D120008C4
:1000A0008D1200088D1200088D1200088D120008B4
:1000B0008D1200088D120008000000008D1200084B
:1000C0008D12000800000000000000008D120008E2
:1000D000000000008D1200088D1200088D1200082B
:1000E0008D1200088D1200080000000000000000C2
:1000F0000000000000000000000000000000000000
:1001000000000000000000000000000000000000EF
:1001100000000000000000008D1200088D12000891
:1001200000000000000000000000000000000000CF
:1001300000000000000000000000000000000000BF
:100140008D1200088D120008000000000000000061
:10015000000000000000000000000000000000009F
:10016000000000000000000000000000000000008F
:10017000000000000000000000000000000000007F
:08018000000000008D120008D0
:1001880010B5054C237833B9044B13B10448AFF3C9
:1001980000800123237010BD0C0000200000000027
:1001A800E812000808B5034B1BB103490348AFF335
:1001B800008008BD0000000010000020E8120008C0
:1001C80038B50E4A0E4B054618784FF47A73B3FBD0
:1001D800F0F31068B0FBF3F000F094F8044658B957
:1001E8000F2D09D8024629464FF0FF3000F056F887
:1001F800044B20461D6038BD012038BD0800002092
:100208000000002004000020074A08B5136843F0E6
:1002180010031360032000F02FF80020FFF7D0FF31
:1002280000F052FF002008BD00200240034A044BA2
:1002380011681B780B441360704700BF280000202A
:1002480000000020014B1868704700BF28000020FC
:1002580038B50446FFF7F6FF631C1CBF054B1B7837
:10026800054618BFE418FFF7EDFF401B8442FAD893
:1002780038BD00BF00000020074AD36823F4E063BC
:100288001B041B0C43F0BF63000243F4003300F46B
:10029800E0600343D360704700ED00E0174B30B5D2
:1002A800DC68C4F30224C4F10703251D042B28BF0E
:1002B8000423062D4FF0010505FA03F303F1FF337C
:1002C8008CBF033C00241940A14005FA04F4013C0A
:1002D8002240002842EA01024FEA0212AFBF00F1B1
:1002E800604000F00F00064BD2B2A5BF00F5614098
:1002F800D2B21A5480F8002330BD00BF00ED00E0F0
:1003080014ED00E00138B0F1807F0AD2064B074AAD
:100318005860F02182F823100020072298601A60A4
:1003280070470120704700BF10E000E000ED00E0DA
:1003380010B5044668B1037903F0FF0213B942719E
:1003480000F0DAFE022323710020012320612371CB
:1003580010BD012010BD13B5002400680194019060
:1003680041B9019908310A440192019A00201360A9
:1003780002B010BD01991431F5E74379012B10B58E
:100388004FF0020315D00371036801221C68427103
:100398008A4022431A601A6869B902F03C023C2A72
:1003A80003D15A6842F001025A6001230371002305
:1003B8004371184610BD02F47012B2F5701FF4D1E3
:1003C8005A6842F00202EFE74379012B70B54FF00B
:1003D80002031BD005680371114B2C689D420B6802
:1003E80016D1AAB924F47F64496824F00E040B439B
:1003F800934023432B602B68C02101FA02F223EAC1
:10040800020201232A60037100234371184670BD5C
:1004180040F6FE76964024EA06048968E7E700BFBE
:10042800007400402DE9F04F85B00B68DFF8648157
:10043800564A01934FF00F090023019CDC4002D17A
:1004480005B0BDE8F08F012404FA03FA019C14EA10
:100458000A0500F093804C6824F0100BBBF1020FE2
:1004680011D1DF0800EB870703F0070E3E6A4FEA59
:100478008E0E09FA0EFC26EA0C0C0E6906FA0EF628
:1004880046EA0C063E624FEA430C0327066807FA61
:100498000CF7FF4304F0030E3E400EFA0CFE0BF17E
:1004A800FF3B4EEA0606BBF1010F066011D88668CD
:1004B80006EA070BCE6806FA0CFE4EEA0B068660C3
:1004C800466826EA0A0AC4F300169E4046EA0A0667
:1004D8004660C66837408E6806FA0CF63743E60071
:1004E800C7604BD5D8F8186046F00106C8F8186000
:1004F800D8F8186023F0030707F1804706F00106D3
:1005080007F58037039603F0030E039EBE684FEA93
:100518008E0E09FA0EFCB0F1904F26EA0C0C2FD083
:100528001B4EB0422ED006F58066B0422CD006F5A0
:100538008066B04214BF0526032606FA0EF646EA80
:100548000C06BE601668EF4314F4803F0CBF3E40B3
:100558002E431660566814F4003F0CBF3E402E43ED
:100568005660966814F4801F0CBF3E402E43966078
:10057800D668A40254BF3E402E43D66001335CE7E0
:100588000026DAE70126D8E70226D6E7000401406C
:1005980000040048001002402DE9F347054618B949
:1005A800012002B0BDE8F0870368DA0711D42B6890
:1005B8009B0700F185802B681C0700F1F6802B68EB
:1005C800580700F13F81EA69002A40F0D6810020EF
:1005D800E7E7BA4C636803F00C03042B07D06368A1
:1005E80003F00C03082B16D16368DF0313D54FF40F
:1005F800003393FAA3F2216893FAA3F3B3FA83F3CF
:1006080003F01F03012202FA03F30B42CFD06B68F9
:10061800002BCCD1C4E76A68B2F5803F25D12368A6
:1006280043F480332360E36AA96823F00F030B4384
:10063800E36252B3FFF706FE4FF400368046012707
:1006480096FAA6F3226896FAA6F3B3FA83F303F0B0
:100658001F0307FA03F31342A9D1FFF7F3FDA0EB39
:1006680008006428ECD903209BE7236832B923F4F7
:1006780080332360236823F48023D3E7B2F5A02FC7
:10068800F5D143F480232360C9E7FFF7DBFD4FF47E
:1006980000368046012796FAA6F3226896FAA6F352
:1006A800B3FA83F303F01F0307FA03F313423FF48B
:1006B8007EAFFFF7C7FDA0EB08006428EBD9D2E7AF
:1006C8007E4C636813F00C0F07D0636803F00C03CB
:1006D800082B22D16368DE031FD4022393FAA3F206
:1006E800216893FAA3F3B3FA83F303F01F030122FB
:1006F80002FA03F30B4203D02B6993427FF450AF05
:100708002168F82393FAA3F3B3FA83F26B69934051
:1007180021F0F802134323604DE72A6901260AB342
:1007280096FAA6F3B3FA83F303F1845303F584131B
:100738009B0002271E60FFF785FD804697FAA7F306
:10074800226897FAA7F3B3FA83F303F01F0306FAB4
:1007580003F31342D4D1FFF775FDA0EB080002287C
:10076800ECD980E796FAA6F3B3FA83F303F184533E
:1007780003F584139B0002271A60FFF763FD804688
:1007880097FAA7F3226897FAA7F3B3FA83F303F06B
:100798001F0306FA03F313423FF40DAFFFF752FDB0
:1007A800A0EB08000228EBD95DE7AA69434E44494B
:1007B80001241AB394FAA4F3B3FA83F30B449B000D
:1007C80002271C60FFF73EFD804697FAA7F397FAC9
:1007D800A7F397FAA7F3726A97FAA7F3B3FA83F322
:1007E80003F01F0304FA03F313427FF4E8AEFFF7A4
:1007F80029FDA0EB08000228E7D934E794FAA4F30E
:10080800B3FA83F30B449B0002271A60FFF71AFD23
:10081800804697FAA7F397FAA7F397FAA7F3726AAD
:1008280097FAA7F3B3FA83F303F01F0304FA03F369
:1008380013423FF4C4AEFFF705FDA0EB0800022801
:10084800E7D910E71D4CE369D90034D4E36943F0D4
:100858008053E361E36903F080530193019B012610
:10086800184F3B68DA052FD5EB68012B3DD1236A79
:1008780043F001032362FFF7E5FC02278246B946ED
:100888004FF0010897FAA7F397FAA7F3002B6CD05B
:10089800226A99FAA9F3B3FA83F303F01F0308FA5B
:1008A80003F3134258D0002E3FF48DAEE36923F0D2
:1008B8008053E36187E60026D2E700BF00100240BC
:1008C80020819010007000403B6843F480733B60C7
:1008D800FFF7B8FC80463B68DB05C5D4FFF7B2FCE0
:1008E800A0EB08006428F6D9BDE63BBB236A23F0D9
:1008F80001032362236A23F004032362FFF7A2FCA7
:1009080002278246B9464FF0010897FAA7F397FAEB
:10091800A7F373B3226A99FAA9F3B3FA83F303F03E
:100928001F0308FA03F31342BDD0FFF78BFC41F213
:100938008833A0EB0A009842E7D994E6052B236A8E
:1009480003D143F00403236291E723F001032362F8
:10095800236A23F004038DE7FFF774FC41F2883320
:10096800A0EB0A0098428DD97DE697FAA7F3626A50
:100978008FE797FAA7F3626ACDE7414C636803F003
:100988000C03082B3FF40CAE022A4FF0807352D1AF
:1009980093FAA3F3B3FA83F303F1845303F58413AF
:1009A8009B0000221A60FFF74DFC4FF0007780464D
:1009B800012697FAA7F3226897FAA7F3B3FA83F305
:1009C80003F01F0306FA03F313422DD162686B6A22
:1009D800296A22F474120B43134363604FF0807347
:1009E80093FAA3F3B3FA83F303F1845303F584135F
:1009F8009B004FF000751E60FFF724FC0126074698
:100A080095FAA5F3226895FAA5F3B3FA83F303F0F0
:100A18001F0306FA03F313427FF4D9ADFFF712FC64
:100A2800C01B0228ECD91EE6FFF70CFCA0EB08005F
:100A38000228BED917E693FAA3F3B3FA83F303F1B6
:100A4800845303F584139B0000221A60FFF7FAFB16
:100A58004FF000750746012695FAA5F3226895FA26
:100A6800A5F3B3FA83F303F01F0306FA03F3134263
:100A78003FF4ADADFFF7E6FBC01B0228ECD9F2E569
:100A88000010024010B5134C616801F00C03082BEC
:100A98001ED14FF4701393FAA3F301F47012B3FA52
:100AA80083F322FA03F30C4AD05CE36A0F2292FA2A
:100AB800A2F2B2FA82F203F00F03D340074AD25CE3
:100AC800CB034ABF064B074BB3FBF2F3584310BDA9
:100AD800034810BD0010024000130008101300085E
:100AE80000127A0000093D002DE9F0410D46044648
:100AF80010B90120BDE8F0814C4A136803F00703E0
:100B08008B422ED32268910736D4D2073CD4474A69
:100B1800136803F007039D4275D32268444D12F011
:100B2800040F7CD1130706D56B68226923F4605340
:100B380043EAC2036B60FFF7A5FF6B68F02292FAE5
:100B4800A2F2B2FA82F203F0F003D340394AD35C3E
:100B5800D840394B18600020FFF732FB0020BDE871
:100B6800F081136823F007030B431360136803F045
:100B780007039942BDD1C5E72D49A0684B6823F00A
:100B8800F00303434B60C0E76268294E012A27D16E
:100B98004FF4003393FAA3F1316893FAA3F3B3FA4D
:100BA80083F303F01F0302FA03F30B42A1D0736827
:100BB80023F003031A437260FFF744FB41F28838BD
:100BC80007467368626803F00C03B3EB820F9ED08C
:100BD800FFF738FBC01B4045F3D90320BDE8F0817F
:100BE800022A0CBF4FF00073022393FAA3F1306876
:100BF80093FAA3F3B3FA83F303F01F03012101FA75
:100C080003F30342D2E7136823F007032B4313606F
:100C1800136803F007039D427FF46BAF7DE76B68B1
:100C2800E16823F4E0630B436B607BE7002002403C
:100C3800001002402413000808000020084B4FF45D
:100C4800E0625B6892FAA2F2B2FA82F203F4E0631D
:100C5800D340044AD35C044A1068D840704700BFA8
:100C6800001002403413000808000020084B4FF41D
:100C780060525B6892FAA2F2B2FA82F203F460530D
:100C8800D340044AD35C044A1068D840704700BF78
:100C980000100240341300080800002038B504464C
:100CA80005682169A368C26928680B4361690B4319
:100CB8004949134301400B432B606B68E168206A84
:100CC80023F440530B436B60A968A36921F4306196
:100CD80003430B43AB60414B9D4212D103F558438C
:100CE8003F491B6B03F00303B2F5004FCB5C3BD1CC
:100CF800082B36D8DFE803F00F2124352D3535359C
:100D08003000384B9D4203D003F580639D425ED18D
:100D1800B2F5004F31D1FFF791FF61684A0802EB45
:100D28004003B3FBF1F39BB2002023F00F022168CC
:100D3800C3F342031343CB6038BDFFF797FFECE7DB
:100D48006068430803F5740303F51053B3FBF0F32D
:100D5800E9E7FFF797FEE0E76068430803F58033AB
:100D6800F4E701200023E0E7082B33D8DFE803F09D
:100D780005101B32273232322A00FFF75FFF636803
:100D880000EB5300B0FBF3F080B2E860002038BD00
:100D9800FFF76CFF636800EB5300B0FBF3F00F4BF9
:100DA80080B2D860F2E76268530803F5F40303F5EC
:100DB8009053B3FBF2F3094A9BB2D360E6E7FFF71F
:100DC80061FEE7E76268530803F50043F1E7B2F50F
:100DD800004FC6D0012038BDF369FFEF003801404D
:100DE8002013000800440040436ADA0710B506D50E
:100DF8000168846A4A6822F4003222434A609C07E8
:100E080006D50168C46A4A6822F4803222434A60DF
:100E1800590706D50168046B4A6822F480222243E8
:100E28004A601A0706D50168446B4A6822F40042F2
:100E380022434A60DC0606D50168846B8A6822F47E
:100E4800805222438A60990606D50168C46B8A6875
:100E580022F4005222438A605A060FD50168046CB6
:100E68004A6822F480122243B4F5801F4A6005D1F3
:100E78004A68446C22F4C00222434A601B0606D525
:100E88000268816C536823F400230B43536010BD40
:100E98002DE9F041069D04460F46164698462168FE
:100EA800CA6937EA02030CBF01220022B24202D00B
:100EB8000020BDE8F0816B1CF2D09DB923681A6848
:100EC80022F4D0721A609A6822F001029A602023F4
:100ED80084F8693084F86A30002384F86830032085
:100EE800BDE8F081FFF7AEF9A0EB08008542D6D245
:100EF800E4E773B504460026C666FFF7A3F923683E
:100F08001B681A07054617D423681B685B070AD5B0
:100F18006FF07E43009300222B464FF48001204659
:100F2800FFF7B6FFA0B92023002084F8693084F8C1
:100F3800680084F86A300CE06FF07E430093324614
:100F480003464FF400112046FFF7A2FF0028DBD02C
:100F5800032002B070BD10B5044660B390F8693044
:100F680003F0FF021BB980F8682000F0F3F822684C
:100F7800242384F86930136823F0010313602046A2
:100F8800FFF78CFE012816D0636A13B12046FFF7DD
:100F98002BFF23685A6822F490425A609A6822F01C
:100FA8002A029A601A6842F0010220461A60BDE8D7
:100FB8001040FFF79EBF012010BD10B590B0282249
:100FC800002106A800F084F91422002101A800F0ED
:100FD8007FF901230A93102302240B9306A84FF4E8
:100FE80060130F9306940D94FFF7D6FA0F2301931D
:100FF8004FF480620023214601A8029403930492CF
:101008000593FFF771FD10B010BD00007FB5FFF725
:10101800FBF8FFF7D2FF274B27485A69274D42F4C0
:1010280080025A615A6902F480020192019A5A694F
:1010380042F400325A615B69214A03F40033029397
:101048000024029BC4604FF4164380E81C000C2364
:10105800436104618461C46104624462FFF77BFFF9
:10106800184B2B602846039404940594FFF760F905
:1010780003A92246284603940494FFF7A5F92146BC
:101088002846FFF77AF9002211464FF4FA632846FA
:10109800FFF761F94FF4FA70FFF7DAF8002240F62B
:1010A800FF7311462846FFF756F94FF4FA70FFF719
:1010B800CFF8E8E700100240400000202C00002094
:1010C80000440040007400400A4B9A6942F0010253
:1010D8009A619A6982B002F001020092009ADA6974
:1010E80042F08052DA61DB6903F080530193019B7F
:1010F80002B070470010024010B5044688B01422B0
:10110800002103A800F0E4F82268114B9A421CD190
:1011180003F5CE3303A9DA6942F00052DA61DA69DD
:1011280002F000520192019A5A6942F400325A615F
:101138005B6903F400330293029B102303934FF07F
:10114800904003230493FFF76DF908B010BD00BF6A
:101158000074004010B5044688B01422002103A88A
:1011680000F0B6F82268134B9A4221D103F5E63312
:1011780003A9DA6942F40032DA61DA6902F400326A
:101188000192019A5A6942F400325A615B6903F488
:1011980000330293029B48F204030393022304934F
:1011A800032306934FF0904007230793FFF73AF97C
:1011B80008B010BD004400407047FEE7FEE7FEE7B8
:1011C800FEE7704770477047FFF730B81549D1F808
:1011D800883043F47003C1F88830134B1A6842F022
:1011E80001021A605868114A02405A601A6822F0CF
:1011F800847222F480321A601A6822F480221A60FB
:101208005A6822F4FE025A60DA6A22F00F02DA62A1
:10121800186B074A02401A6300229A604FF0006375
:101228008B60704700ED00E0001002400CC07FF8B2
:10123800CCFC00FFDFF834D0002103E00C4B5B58F6
:10124800435004310B480C4B42189A42F6D30B4AD0
:1012580002E0002342F8043B094B9A42F9D3FFF716
:10126800B5FF00F011F8FFF7D1FEFEE700300020CF
:1012780044130008000000200C0000200C0000208F
:10128800B0000020FEE7000070B50D4E0D4CA41B09
:10129800A4100025A54209D10B4E0C4C00F020F8F3
:1012A800A41BA4100025A54205D170BD56F8253011
:1012B80098470135EEE756F8253098470135F2E7AB
:1012C8003C1300083C1300083C13000840130008B6
:1012D80002440346934200D1704703F8011BF9E723
:1012E800F8B500BFF8BC08BC9E467047F8B500BF0B
:0812F800F8BC08BC9E467047DB
:1013000002030405060708090A0B0C0D0E0F101046
:101310000102030405060708090A0B0C0D0E0F1045
:1013200000040802000000000000000001020304A5
:0C13300006070809000000000102030489
:04133C00AD010008F7
:041340008901000817
:0C134400010000001000000000127A0000
:040000050800123DA0
:00000001FF
