:020000040800F2
:1000000000300020851C0008091C00080B1C00089B
:100010000D1C00080F1C0008111C00080000000047
:10002000000000000000000000000000131C000899
:10003000151C000800000000171C0008191C00080F
:10004000D51C0008D51C0008D51C0008D51C0008CC
:10005000D51C0008D51C0008D51C0008D51C0008BC
:10006000D51C0008D51C0008D51C0008D51C0008AC
:10007000D51C0008D51C0008D51C0008D51C00089C
:10008000D51C0008D51C0008D51C0008D51C00088C
:10009000D51C0008D51C0008D51C0008D51C00087C
:1000A000D51C0008D51C0008D51C0008D51C00086C
:1000B000D51C0008D51C000800000000D51C000855
:1000C000D51C00080000000000000000D51C00083E
:1000D00000000000D51C0008D51C0008D51C000835
:1000E000D51C0008D51C000800000000000000001E
:1000F0000000000000000000000000000000000000
:1001000000000000000000000000000000000000EF
:100110000000000000000000D51C0008D51C0008ED
:1001200000000000000000000000000000000000CF
:1001300000000000000000000000000000000000BF
:10014000D51C0008D51C00080000000000000000BD
:10015000000000000000000000000000000000009F
:10016000000000000000000000000000000000008F
:10017000000000000000000000000000000000007F
:0801800000000000D51C00087E
:1001900010B5054C237833B9044B13B10448AFF3C1
:1001A00000800123237010BD7000002000000000BB
:1001B0008825000808B5034B1BB103490348AFF37A
:1001C000008008BD000000007400002088250008A1
:1001D00001F0FF01102A2BDB10F0070F08D010F8F8
:1001E000013B013A8B422DD010F0070F42B3F6D1FC
:1001F000F0B441EA012141EA014122F007047FF015
:1002000000070023F0E80256083C85EA010586EA6B
:10021000010685FA47F5A3FA87F586FA47F6A5FAA7
:1002200087F68EB9EED1F0BC01F0FF0102F00702B3
:1002300032B110F8013B013A83EA010313B1F8D15E
:100240000020704701387047002D06BF354603383F
:10025000073815F0010F07D1013015F4807F02BF78
:10026000013015F4C03F0130F0BC0138704700BFC9
:1002700038B50E4A0E4B054618784FF47A73B3FB27
:10028000F0F31068B0FBF3F000F03EFD044658B9FF
:100290000F2D09D8024629464FF0FF3000F000FD2F
:1002A000044B20461D6038BD012038BD08000020E9
:1002B0000000002004000020074A08B5136843F03E
:1002C00010031360032000F0D9FC0020FFF7D0FFDB
:1002D00001F022FC002008BD00200240034A044B2C
:1002E00011681B780B441360704700BF9800002012
:1002F00000000020014B1868704700BF98000020E4
:1003000038B50446FFF7F6FF631C1CBF054B1B788E
:10031000054618BFE418FFF7EDFF401B8442FAD8EA
:1003200038BD00BF0000002038B503680446986857
:1003300000F00300012801D0002038BD1A68D20760
:10034000FAD59A6802F00D02012A1BD19A6842F090
:1003500002029A6003221A60FFF7CCFF0546236869
:100360009B68DB07E8D5FFF7C5FF401B0228F6D9DD
:10037000636C43F010036364A36C43F00103A36454
:10038000012038BD636C43F010036364A36C43F039
:100390000103A36438BD000003689A6812F00C0FD3
:1003A00070B5044601D1002070BDDA68900126D5F1
:1003B000E269012A23D1A269012A20D1204A1968C1
:1003C000490610D540221A600C219A68560706D5B6
:1003D0009A6895075EBF9A6842F010029A600C29ED
:1003E0000FD104251EE0013AE9D1636C43F01003FC
:1003F0006364A36C43F00103A364012070BD602912
:10040000E3D19A68100706D59A6892075EBF9A688A
:1004100042F020029A60602903D06C29E1D10C25BA
:1004200000E00825FFF766FF064623689B681D422B
:10043000B9D0FFF75FFF801B0B28F6D9D5E700BFC7
:100440000194090038B503689A6802F00302012A92
:10045000044604D11A68D20701D5002038BD996836
:100460000E4A11420FD19A6842F001029A60FFF7DA
:1004700041FF054623681B68DB07EED4FFF73AFF10
:10048000401B0228F6D9636C43F010036364A36C2D
:1004900043F00103A364012038BD00BF3F0000808A
:1004A00070B596B0002300930446002800F0E38066
:1004B000426CD50600F1CC80436C002B00F092809A
:1004C000002023689A68D20002D59B689B000AD559
:1004D000636C23F0120343F010036364A36C43F0D6
:1004E0000103A3640120636CDE0600F1BE800028D6
:1004F00040F0BB802368996811F0040140F0B5809A
:10050000626C22F4817242F00202B3F1A04F626485
:100510000CBF5A4A4FF0A04201929A6802F00302BF
:10052000012A02D11A68D50710D4019A3AB1956808
:1005300005F00305012D02D11268D20706D4504DF3
:100540006668AA6822F440323243AA60A26BA668A9
:10055000E569012AE26842EA060218BF4FF48051B9
:1005600042EA45320A43616A012907D1002D71D15F
:10057000A16A013942EA414242F48032E16A01292A
:100580001EBF256B29430A43996811F00C0F0BD14C
:10059000D968A56921F4804121F00201D960616B1D
:1005A000490041EA85310A43DD68364929400A435A
:1005B000DA602269012A05BF196B226A1A6B02F1FF
:1005C000FF3206BF21F00F010A4322F00F021A6327
:1005D0000023A364636C23F0030343F0010363640B
:1005E00016B070BD83640365C36480F8403001F0C9
:1005F000ABFA23689B68D8003FF562AF2046FFF74F
:1006000093FE626CD1063FF55CAF00287FF459AFD2
:10061000636C23F4885323F0020343F00203636402
:1006200023689A6822F040529A609A6842F0805299
:100630009A60154B154A1B68B3FBF2F20A23534329
:100640000093009B002B3FF43BAF009B013BF7E77F
:10065000184648E7616C21F0220141F020016164F5
:10066000A16C41F00101A16488E7636C23F01203DF
:1006700043F0100363640120B2E700BF00010050A3
:100680000003005007C0F0FF0800002040420F00A8
:1006900038B503689D6815F00405044658D190F8F4
:1006A0004030012B54D0012380F84030FFF7CAFEC0
:1006B00000284AD1636C23F4706323F0010343F4F0
:1006C00080736364234B9B68626C13F01F0F236875
:1006D00002D0B3F1A04F2ED122F480126264DA6806
:1006E000950141BF626C22F4405242F48052626430
:1006F000626C12F480521CBFA26C22F00602A2644B
:10070000002284F840201C221A60124A9168C9060F
:100710000CD0916801F01F01052907D0926802F002
:100720001F02092A02D0B3F1A04F12D19A6842F0F9
:1007300004029A6038BD42F480126264064A934211
:10074000D6D14FF0A042D268CAE784F8405038BDF5
:10075000022038BD000300500001005090F84030E6
:10076000012B10B5044616D0012380F840306C21CF
:10077000FFF712FE58B92046FFF7D6FD38B9636C73
:1007800023F4885323F0010343F00103636400233F
:1007900084F8403010BD022010BD00002DE9F0416A
:1007A0004669082E04460F461CD0374A936813F05A
:1007B0001F030CD10268D268D10712D5426C42F0F7
:1007C0002002426484F840300120BDE8F081936843
:1007D00013F4404F05D0436C43F0200343640023DF
:1007E000F0E70C26284B9B6813F01F0F236804D0FA
:1007F000B3F1A04F18BF4FF0A043DD68FFF77AFDBB
:10080000804623681A68164222D0626C42F4007255
:100810006264DA6812F4406F13D1A80411D41A6824
:1008200011070ED59A6812F0040F626C24D122F4DD
:1008300080726264626CD20403D4626C42F0010282
:10084000626415F480400CBF1E600020BDE8F0819A
:100850007A1CD7D04FB9636C43F004036364002360
:1008600084F840300320BDE8F081FFF743FDA0EBA2
:1008700008008742C5D2EEE742F020026264A26C13
:1008800042F00102A264DCE7000300500368186C28
:1008900070470000F0B597B00023009390F8403007
:1008A000012B054600F051812B68CE689A68012023
:1008B000540785F8400000F1438148680C6804281B
:1008C0004FF0060231D842431F6B1F20904027EAA9
:1008D000000004FA02F202431A639A6812F00C0F45
:1008E00062D1092C4FEA44028F6846D922449869A4
:1008F0001E3A4FF0070E0EFA02FE20EA0E0007FA2B
:1009000002F202439A61DA68C2F3C10E4A694FEA01
:100910004E0E02FA0EFE0A69013A4FEA846C032A6F
:1009200073D8DFE802F037515C6709280BD84243DF
:100930005F6B1E3A1F20904027EA000004FA02F283
:1009400002435A63C9E70E280BD842439F6B3C3AD7
:100950001F20904027EA000004FA02F202439A6343
:10096000BBE74243DF6B5A3A1F20904027EA000062
:1009700004FA02F20243DA63AFE7586922444FF007
:10098000070E0EFA02FE20EA0E0007FA02F20243F8
:100990005A61B8E71A6E7A4F174047EA0C0242F0E4
:1009A000004242EA0E021A669A6802F00302012A25
:1009B00040F0CD801A68D00740F1C98000200023A4
:1009C00085F8403017B0F0BD5A6E6D4F174047EABA
:1009D0000C0242F0004242EA0E025A66E4E79A6EC6
:1009E0006748104040EA0C0242F0004242EA0E0220
:1009F0009A66D9E7D86E624A024042EA0C0242F097
:100A0000004242EA0E02DA66CEE71A6E02F0F842BF
:100A1000624502BF1A6E22F000421A665A6E02F058
:100A2000F842944502BF5A6E22F000425A669A6E0E
:100A300002F0F842944502BF9A6E22F000429A6694
:100A4000DA6E02F0F8429445AED1DA6E22F000423E
:100A5000D9E7D3F8B0200121A14022EA0102C3F86E
:100A6000B020102C43D1474A926812F4000FA5D150
:100A7000B3F1A04F0CBF444A4FF0A04201929A68D4
:100A800002F00302012A02D11A68D10752D4019A56
:100A90003AB1916801F00301012902D11268D2072D
:100AA00048D4102C32D1B3F1A04F87D1354A936886
:100AB00043F400039360354B354A1B68B3FBF2F2F5
:100AC0000A2353430093009B002B3FF477AF009B16
:100AD000013BF7E7601C596900EB400007228240A8
:100AE00021EA020106FA00F20A435A61B9E7112C21
:100AF00004D1244A926812F0807FB8E7122C7FF468
:100B00005DAF204A926812F4800FB0E7112C09D132
:100B1000B3F1A04F7FF452AF1A4A936843F0807349
:100B200093604BE7122C7FF449AF164A936843F465
:100B30008003F5E76B6C43F020036B6401203EE714
:100B40006B6C43F020036B6439E702203AE7012E17
:100B50007FF47FAFD3F8B020A6401643092CC3F82A
:100B6000B0608E68B6D904EB440299691B3A07203D
:100B7000904021EA000106FA02F20A439A6170E706
:100B800000F0FF8300030050000100500800002027
:100B900040420F00F0B5034697B01C680868B4F1F6
:100BA000A04F0CBF334A4FF0A0420192019A002A95
:100BB00049D093F84050012D47D0012583F840508B
:100BC000A5686F0735D495686E0732D42A4EA0B158
:100BD0004D68D6F808E02F465D6B47EA45352EF4A0
:100BE00060473D43B560A56805F00305012D2ED192
:100BF0002468E5072BD5002020E0B16821F460418E
:100C0000B160A16801F00301012902D12168C9077F
:100C1000F1D4916801F00301012902D11268D207D1
:100C2000E9D415498A6822F4716222F00F028A60C1
:100C3000E1E75A6C42F020025A640120002283F856
:100C4000402017B0F0BD0120FBE70220F9E79468CF
:100C500004F00304012C02D11268D407CBD4064C53
:100C60008968A26822F47162084322F00F021043DF
:100C7000A060C0E70001005000030050074AD3689D
:100C800023F4E0631B041B0C43F0BF63000243F436
:100C9000003300F4E0600343D360704700ED00E0F0
:100CA000174B30B5DC68C4F30224C4F10703251DDB
:100CB000042B28BF0423062D4FF0010505FA03F38A
:100CC00003F1FF338CBF033C00241940A14005FA17
:100CD00004F4013C2240002842EA01024FEA0212D9
:100CE000AFBF00F1604000F00F00064BD2B2A5BFCD
:100CF00000F56140D2B21A5480F8002330BD00BF25
:100D000000ED00E014ED00E00138B0F1807F0AD280
:100D1000064B074A5860F02182F823100020072272
:100D200098601A6070470120704700BF10E000E033
:100D300000ED00E02DE9F04F85B00B68DFF864812D
:100D4000564A01934FF00F090023019CDC4002D169
:100D500005B0BDE8F08F012404FA03FA019C14EAFF
:100D60000A0500F093804C6824F0100BBBF1020FD1
:100D700011D1DF0800EB870703F0070E3E6A4FEA48
:100D80008E0E09FA0EFC26EA0C0C0E6906FA0EF617
:100D900046EA0C063E624FEA430C0327066807FA50
:100DA0000CF7FF4304F0030E3E400EFA0CFE0BF16D
:100DB000FF3B4EEA0606BBF1010F066011D88668BC
:100DC00006EA070BCE6806FA0CFE4EEA0B068660B2
:100DD000466826EA0A0AC4F300169E4046EA0A0656
:100DE0004660C66837408E6806FA0CF63743E60060
:100DF000C7604BD5D8F8186046F00106C8F81860EF
:100E0000D8F8186023F0030707F1804706F00106C1
:100E100007F58037039603F0030E039EBE684FEA82
:100E20008E0E09FA0EFCB0F1904F26EA0C0C2FD072
:100E30001B4EB0422ED006F58066B0422CD006F58F
:100E40008066B04214BF0526032606FA0EF646EA6F
:100E50000C06BE601668EF4314F4803F0CBF3E40A2
:100E60002E431660566814F4003F0CBF3E402E43DC
:100E70005660966814F4801F0CBF3E402E43966067
:100E8000D668A40254BF3E402E43D66001335CE7CF
:100E90000026DAE70126D8E70226D6E7000401405B
:100EA00000040048001002402DE9F347054618B938
:100EB000012002B0BDE8F0870368DA0711D42B687F
:100EC0009B0700F185802B681C0700F1F6802B68DA
:100ED000580700F13F81EA69002A40F0D6810020DE
:100EE000E7E7BA4C636803F00C03042B07D0636890
:100EF00003F00C03082B16D16368DF0313D54FF4FE
:100F0000003393FAA3F2216893FAA3F3B3FA83F3BD
:100F100003F01F03012202FA03F30B42CFD06B68E8
:100F2000002BCCD1C4E76A68B2F5803F25D1236895
:100F300043F480332360E36AA96823F00F030B4373
:100F4000E36252B3FFF7D6F94FF40036804601272B
:100F500096FAA6F3226896FAA6F3B3FA83F303F09F
:100F60001F0307FA03F31342A9D1FFF7C3F9A0EB5C
:100F700008006428ECD903209BE7236832B923F4E6
:100F800080332360236823F48023D3E7B2F5A02FB6
:100F9000F5D143F480232360C9E7FFF7ABF94FF4A1
:100FA00000368046012796FAA6F3226896FAA6F341
:100FB000B3FA83F303F01F0307FA03F313423FF47A
:100FC0007EAFFFF797F9A0EB08006428EBD9D2E7D2
:100FD0007E4C636813F00C0F07D0636803F00C03BA
:100FE000082B22D16368DE031FD4022393FAA3F2F5
:100FF000216893FAA3F3B3FA83F303F01F030122EA
:1010000002FA03F30B4203D02B6993427FF450AFF3
:101010002168F82393FAA3F3B3FA83F26B69934040
:1010200021F0F802134323604DE72A6901260AB331
:1010300096FAA6F3B3FA83F303F1845303F584130A
:101040009B0002271E60FFF755F9804697FAA7F329
:10105000226897FAA7F3B3FA83F303F01F0306FAA3
:1010600003F31342D4D1FFF745F9A0EB080002289F
:10107000ECD980E796FAA6F3B3FA83F303F184532D
:1010800003F584139B0002271A60FFF733F98046AB
:1010900097FAA7F3226897FAA7F3B3FA83F303F05A
:1010A0001F0306FA03F313423FF40DAFFFF722F9D3
:1010B000A0EB08000228EBD95DE7AA69434E44493A
:1010C00001241AB394FAA4F3B3FA83F30B449B00FC
:1010D00002271C60FFF70EF9804697FAA7F397FAEC
:1010E000A7F397FAA7F3726A97FAA7F3B3FA83F311
:1010F00003F01F0304FA03F313427FF4E8AEFFF793
:10110000F9F8A0EB08000228E7D934E794FAA4F331
:10111000B3FA83F30B449B0002271A60FFF7EAF847
:10112000804697FAA7F397FAA7F397FAA7F3726A9C
:1011300097FAA7F3B3FA83F303F01F0304FA03F358
:1011400013423FF4C4AEFFF7D5F8A0EB0800022825
:10115000E7D910E71D4CE369D90034D4E36943F0C3
:101160008053E361E36903F080530193019B0126FF
:10117000184F3B68DA052FD5EB68012B3DD1236A68
:1011800043F001032362FFF7B5F802278246B94610
:101190004FF0010897FAA7F397FAA7F3002B6CD04A
:1011A000226A99FAA9F3B3FA83F303F01F0308FA4A
:1011B00003F3134258D0002E3FF48DAEE36923F0C1
:1011C0008053E36187E60026D2E700BF00100240AB
:1011D00020819010007000403B6843F480733B60B6
:1011E000FFF788F880463B68DB05C5D4FFF782F837
:1011F000A0EB08006428F6D9BDE63BBB236A23F0C8
:1012000001032362236A23F004032362FFF772F8C9
:1012100002278246B9464FF0010897FAA7F397FADA
:10122000A7F373B3226A99FAA9F3B3FA83F303F02D
:101230001F0308FA03F31342BDD0FFF75BF841F236
:101240008833A0EB0A009842E7D994E6052B236A7D
:1012500003D143F00403236291E723F001032362E7
:10126000236A23F004038DE7FFF744F841F2883343
:10127000A0EB0A0098428DD97DE697FAA7F3626A3F
:101280008FE797FAA7F3626ACDE7414C636803F0F2
:101290000C03082B3FF40CAE022A4FF0807352D19E
:1012A00093FAA3F3B3FA83F303F1845303F584139E
:1012B0009B0000221A60FFF71DF84FF00077804670
:1012C000012697FAA7F3226897FAA7F3B3FA83F3F4
:1012D00003F01F0306FA03F313422DD162686B6A11
:1012E000296A22F474120B43134363604FF0807336
:1012F00093FAA3F3B3FA83F303F1845303F584134E
:101300009B004FF000751E60FEF7F4FF01260746B4
:1013100095FAA5F3226895FAA5F3B3FA83F303F0DF
:101320001F0306FA03F313427FF4D9ADFEF7E2FF81
:10133000C01B0228ECD91EE6FEF7DCFFA0EB08007C
:101340000228BED917E693FAA3F3B3FA83F303F1A5
:10135000845303F584139B0000221A60FEF7CAFF32
:101360004FF000750746012695FAA5F3226895FA15
:10137000A5F3B3FA83F303F01F0306FA03F3134252
:101380003FF4ADADFEF7B6FFC01B0228ECD9F2E585
:101390000010024010B5134C616801F00C03082BDB
:1013A0001ED14FF4701393FAA3F301F47012B3FA41
:1013B00083F322FA03F30C4AD05CE36A0F2292FA19
:1013C000A2F2B2FA82F203F00F03D340074AD25CD2
:1013D000CB034ABF064B074BB3FBF2F3584310BD98
:1013E000034810BD00100240A0250008B0250008E9
:1013F00000127A0000093D002DE9F0410D46044637
:1014000010B90120BDE8F0814C4A136803F00703CE
:101410008B422ED32268910736D4D2073CD4474A58
:10142000136803F007039D4275D32268444D12F000
:10143000040F7CD1130706D56B68226923F460532F
:1014400043EAC2036B60FFF7A5FF6B68F02292FAD4
:10145000A2F2B2FA82F203F0F003D340394AD35C2D
:10146000D840394B18600020FEF702FF0020BDE88D
:10147000F081136823F007030B431360136803F034
:1014800007039942BDD1C5E72D49A0684B6823F0F9
:10149000F00303434B60C0E76268294E012A27D15D
:1014A0004FF4003393FAA3F1316893FAA3F3B3FA3C
:1014B00083F303F01F0302FA03F30B42A1D0736816
:1014C00023F003031A437260FEF714FF41F28838D9
:1014D00007467368626803F00C03B3EB820F9ED07B
:1014E000FEF708FFC01B4045F3D90320BDE8F0819B
:1014F000022A0CBF4FF00073022393FAA3F1306865
:1015000093FAA3F3B3FA83F303F01F03012101FA63
:1015100003F30342D2E7136823F007032B4313605E
:10152000136803F007039D427FF46BAF7DE76B68A0
:10153000E16823F4E0630B436B607BE7002002402B
:1015400000100240C925000808000020084B4FF495
:10155000E0625B6892FAA2F2B2FA82F203F4E0630C
:10156000D340044AD35C044A1068D840704700BF97
:1015700000100240D925000808000020084B4FF455
:1015800060525B6892FAA2F2B2FA82F203F46053FC
:10159000D340044AD35C044A1068D840704700BF67
:1015A00000100240D92500080800002038B5044684
:1015B00005682169A368C26928680B4361690B4308
:1015C0004949134301400B432B606B68E168206A73
:1015D00023F440530B436B60A968A36921F4306185
:1015E00003430B43AB60414B9D4212D103F558437B
:1015F0003F491B6B03F00303B2F5004FCB5C3BD1BB
:10160000082B36D8DFE803F00F2124352D3535358A
:101610003000384B9D4203D003F580639D425ED17C
:10162000B2F5004F31D1FFF791FF61684A0802EB34
:101630004003B3FBF1F39BB2002023F00F022168BB
:10164000C3F342031343CB6038BDFFF797FFECE7CA
:101650006068430803F5740303F51053B3FBF0F31C
:10166000E9E7FFF797FEE0E76068430803F580339A
:10167000F4E701200023E0E7082B33D8DFE803F08C
:1016800005101B32273232322A00FFF75FFF6368F2
:1016900000EB5300B0FBF3F080B2E860002038BDEF
:1016A000FFF76CFF636800EB5300B0FBF3F00F4BE8
:1016B00080B2D860F2E76268530803F5F40303F5DB
:1016C0009053B3FBF2F3094A9BB2D360E6E7FFF70E
:1016D00061FEE7E76268530803F50043F1E7B2F5FE
:1016E000004FC6D0012038BDF369FFEF003801403C
:1016F000C025000800440040436ADA0710B506D54B
:101700000168846A4A6822F4003222434A609C07D6
:1017100006D50168C46A4A6822F4803222434A60CE
:10172000590706D50168046B4A6822F480222243D7
:101730004A601A0706D50168446B4A6822F40042E1
:1017400022434A60DC0606D50168846B8A6822F46D
:10175000805222438A60990606D50168C46B8A6864
:1017600022F4005222438A605A060FD50168046CA5
:101770004A6822F480122243B4F5801F4A6005D1E2
:101780004A68446C22F4C00222434A601B0606D514
:101790000268816C536823F400230B43536010BD2F
:1017A0002DE9F041069D04460F46164698462168ED
:1017B000CA6937EA02030CBF01220022B24202D0FA
:1017C0000020BDE8F0816B1CF2D09DB923681A6837
:1017D00022F4D0721A609A6822F001029A602023E3
:1017E00084F8693084F86A30002384F86830032074
:1017F000BDE8F081FEF77EFDA0EB08008542D6D261
:10180000E4E72DE9F3411F4690F86930202B0446A8
:101810000D4690464CD1002948D0002A46D090F879
:101820006830012B44D0012380F868300023C36660
:10183000212380F86930FEF75DFDA4F8508006464C
:10184000A4F85280B4F8522092B262B9009733469D
:1018500040212046FFF7A4FF98B9202384F869307F
:1018600084F868000EE0B4F852300097013B9BB258
:10187000A4F852300022334680212046FFF790FF23
:1018800018B1032002B0BDE8F081A3682268B3F567
:10189000805F07D123692BB935F8023BC3F30803F6
:1018A0001385CFE72B7813850135CBE70120E9E7D6
:1018B0000220E7E773B504460026C666FEF71AFD68
:1018C00023681B681A07054617D423681B685B0743
:1018D0000AD56FF07E43009300222B464FF480011F
:1018E0002046FFF75DFFA0B92023002084F869306F
:1018F00084F8680084F86A300CE06FF07E4300934F
:10190000324603464FF400112046FFF749FF0028F6
:10191000DBD0032002B070BD10B5044660B390F870
:10192000693003F0FF021BB980F8682000F03AF933
:101930002268242384F86930136823F001031360BC
:101940002046FFF733FE012816D0636A13B1204604
:10195000FFF7D2FE23685A6822F490425A609A68D0
:1019600022F02A029A601A6842F0010220461A60A8
:10197000BDE81040FFF79EBF012010BD10B590B02C
:101980002822002106A800F0CBF91422002101A88A
:1019900000F0C6F901230A93102302240B9306A832
:1019A0004FF460130F9306940D94FFF77DFA0F2305
:1019B00001934FF480620023214601A8029403930F
:1019C00004920593FFF718FD10B010BD2DE9F84300
:1019D000951C561C093222F0070200AFADEB020D38
:1019E000E9460446ADEB020D48460A460B4900F0B5
:1019F0009FF9E8460022D3B29E4202F1010208DAC2
:101A00000A23AAB241462046FFF7FBFEBD46BDE8C9
:101A1000F88319F8031008F80310ECE7C425000850
:101A2000F0B58DB0FEF748FCFFF7A8FF364B374EF8
:101A30005A69374D42F480025A615A6902F48002B1
:101A40000192019A5A6942F400325A615B69314A43
:101A500003F4003302930024029BF4604FF4164316
:101A600086E81C0030460C2373613461B461F46174
:101A700034627462FFF750FF18220DEB020021461A
:101A800003940494059400F04BF94FF0A0414FF4F7
:101A90004033012785E80A00284604236B61AC60C7
:101AA0002C61EC616C622C63EF62EC602F626C6302
:101AB000AC61AC63FEF7F4FC03A928460394FFF77E
:101AC00069F806A9284606970797099408940A9486
:101AD0000B94FEF7DFFE2846FEF7DAFD4FF47A712D
:101AE0002846FEF75BFE2846FEF7D0FE0446284651
:101AF000FEF734FE30460A2304222146FFF766FF34
:101B00006420FEF7FDFBE6E700100240F000002035
:101B10009C000020004400400A4B9A6942F00102F8
:101B20009A619A6982B002F001020092009ADA6921
:101B300042F08052DA61DB6903F080530193019B2C
:101B400002B070470010024010B5044688B014225D
:101B5000002103A800F0E4F82368B3F1A04F1ED1E0
:101B600003F1704303F5043303A95A6942F080522C
:101B70005A615A6902F080520192019A5A6942F4FC
:101B800000325A615B6903F400330293029B012324
:101B900003934FF0904003230493FFF7CBF808B072
:101BA00010BD000010B5044688B01422002103A81F
:101BB00000F0B6F82268134B9A4221D103F5E633C0
:101BC00003A9DA6942F40032DA61DA6902F4003218
:101BD0000192019A5A6942F400325A615B6903F436
:101BE00000330293029B48F20403039302230493FD
:101BF000032306934FF0904007230793FFF79AF8CB
:101C000008B010BD004400407047FEE7FEE7FEE765
:101C1000FEE7704770477047FEF760BB1549D1F883
:101C2000883043F47003C1F88830134B1A6842F0CF
:101C300001021A605868114A02405A601A6822F07C
:101C4000847222F480321A601A6822F480221A60A8
:101C50005A6822F4FE025A60DA6A22F00F02DA624F
:101C6000186B074A02401A6300229A604FF0006323
:101C70008B60704700ED00E0001002400CC07FF860
:101C8000CCFC00FFDFF834D0002103E00C4B5B58A4
:101C9000435004310B480C4B42189A42F6D30B4A7E
:101CA00002E0002342F8043B094B9A42F9D3FFF7C4
:101CB000B5FF00F011F8FFF7B3FEFEE7003000209B
:101CC0001C2600080000002070000020700000208A
:101CD00064010020FEE7000070B50D4E0D4CA41B02
:101CE000A4100025A54209D10B4E0C4C00F04CFC71
:101CF000A41BA4100025A54205D170BD56F82530BF
:101D000098470135EEE756F8253098470135F2E758
:101D100014260008142600081426000818260008B7
:101D200002440346934200D1704703F8011BF9E7D0
:101D30000EB400B59CB04FF402711DABADF8141099
:101D4000029006906FF000410A48049107914FF607
:101D5000FF7153F8042BADF816100068019302A927
:101D600000F066F8029B00221A701CB05DF804EBCC
:101D700003B070470C0000202DE9F0478E689E42AA
:101D800082460C469146984635D88A8912F4906F5F
:101D900031D0256809696F1A6569022305EB45058D
:101DA00095FBF3F508F101033B449D4238BF1D4606
:101DB000530531D5294600F039FB064650B90C23AE
:101DC000CAF80030A38943F04003A3814FF0FF30ED
:101DD000BDE8F0873A46216900F0B4FAA38923F4FC
:101DE000906343F08003A381266165613E44ED1B4F
:101DF0002660A5604646464528BF464632464946C7
:101E0000206800F0AAFAA3689B1BA36023681E4405
:101E100026600020BDE8F0872A4600F065FB0646F4
:101E20000028E1D12169504600F0B2FAC7E700006E
:101E30002DE9F04F9DB0804603938B891C060D461B
:101E400016460FD50B696BB9402100F0EFFA2860F8
:101E5000286128B90C23C8F800304FF0FF30C5E0E6
:101E600040236B610023099320238DF82930302310
:101E70008DF82A304FF0010B37463C4614F8013BF1
:101E8000002B3CD1B7EB060A0BD05346324629460D
:101E90004046FFF771FF013000F0A380099B5344D7
:101EA00009933B78002B00F09C8000234FF0FF3219
:101EB00004930793059206938DF853301A930522E5
:101EC00021785048FEF784F9671C049BD8B9D906DD
:101ED00044BF20228DF853201A0744BF2B228DF8CF
:101EE000532022782A2A16D0079A00210A20274652
:101EF00001343B78303B092B51D9C9B111E0252B76
:101F0000C0D02746B9E73F4A801A0BFA00F01843C1
:101F100004903C46D3E7039A111D12680391002AEE
:101F200001DB079204E0524243F00203079204935C
:101F30003B782E2B0ED17B782A2B07F1010132D171
:101F4000039B1A1D1B680392002BB8BF4FF0FF3391
:101F5000023705932C4C397803222046FEF738F9D6
:101F600038B14023001B03FA00F0049B03430493A1
:101F70000137397825488DF8281006227E1CFEF797
:101F800027F9002835D0224BFBB9039B073323F0F8
:101F9000070308330393099B4B4409936CE700FB49
:101FA00002320121A3E70023059318460A240F46B5
:101FB00001313A78303A092A03D9002BCAD005906A
:101FC000C8E704FB00200123F1E703AB00932A4696
:101FD000104B04A94046AFF30080B0F1FF3F8146AB
:101FE000D9D1AB895B063FF538AF09981DB0BDE884
:101FF000F08F03AB00932A46064B04A9404600F03D
:1020000081F8EAE7E1250008E7250008EB2500084C
:1020100000000000791D00082DE9F04791461F4699
:102020008A680B69DDF820809342B8BF1346C9F86F
:10203000003091F8432006460C4612B10133C9F82E
:1020400000302368990642BFD9F800300233C9F83E
:102050000030256815F0060507D104F1190AE36878
:10206000D9F800209B1A9D4229DB94F8433022685E
:10207000003318BF012392062ED404F143023946DF
:102080003046C047013021D02368E568D9F80020E8
:1020900003F00603042B08BFAD1AA36822690CBF26
:1020A00025EAE57500259342C4BF9B1AED184FF051
:1020B00000091A344D451BD10020BDE8F0870123EB
:1020C000524639463046C047013003D14FF0FF3009
:1020D000BDE8F0870135C2E7E1185A1C302081F8CD
:1020E0004300224494F8451082F843100233C4E7B9
:1020F0000123224639463046C0470130E6D009F177
:102100000109D7E72DE9F04317460A7E85B06E2A0C
:10211000984606460C460C9B01F1430E00F0BC802D
:102120001AD8632A2ED00AD8002A00F0C880582A6C
:1021300000F08A8004F1420584F842202AE0642AF3
:1021400001D0692AF6D121681A6811F0800F23D0D6
:10215000111D1960136827E0732A00F0B48008D8B5
:102160006F2A2AD0702AE5D10A6842F020020A605C
:1021700003E0752A21D0782ADCD1782284F8452022
:102180006E4964E01A6801F14205111D1960136877
:1021900084F842300123A3E011F0400F02F1040162
:1021A0001960D7D0B2F90030002B03DA2D225B4240
:1021B00084F8432062490A2217E02068196810F069
:1021C000800F03D0081D18600B6806E010F0400F68
:1021D00001F104001860F7D00B8859496F2A14BF29
:1021E0000A220822002084F843006568A560002DBB
:1021F000C0F29C80206820F004002060002B3FD1BA
:10220000002D40F095807546082A0BD12368DA0727
:1022100008D5236962689A42DEBF302305F8013C85
:1022200005F1FF35AEEB05032361CDF800803B4699
:1022300003AA21463046FFF7EFFE013055D14FF09B
:10224000FF3005B0BDE8F08381F845203C492268A5
:10225000186812F0800F00F104051D6001D00368BA
:1022600002E05506FBD50388D00744BF42F02002A8
:1022700022601BB9226822F0200222601022B1E7FE
:102280007546B3FBF2F002FB1033CB5C05F8013D61
:1022900003460028F5D1B7E708681A68496910F0C5
:1022A000800F04D0101D18601368196007E010F04B
:1022B000400F02F1040018601368F6D01980002363
:1022C00023617546B1E71A68111D196015686268C7
:1022D00000212846FDF77CFF08B1401B6060636861
:1022E0002361002384F843309FE723692A46394657
:1022F0003046C0470130A2D023689B0707D5002590
:1023000004F11909E368039A9B1A9D4205DBE06812
:10231000039B9842B8BF184693E701234A463946C3
:102320003046C04701308AD00135EBE7002BA7D1FA
:102330000B7884F8423004F1420565E70326000873
:10234000F225000810B5431E0A44914200D110BD89
:1023500011F8014B03F8014FF7E7884210B501EB84
:10236000020303D8421E99420CD110BD9842F9D203
:102370008118D21AD34200D110BD13F8014D01F8D3
:10238000014DF7E711F8014B02F8014FEBE70000B0
:1023900038B50546002945D051F8043C0C1F002BE8
:1023A000B8BFE41800F0D6F81F4A1368104633B9D6
:1023B000636014602846BDE8384000F0CCB8A34202
:1023C0000CD921686218934204BF1A685B68636085
:1023D00004BF521822600460ECE713465A680AB141
:1023E000A242FAD919685818A0420BD120680144BA
:1023F000581882421960DDD1106852685A60014451
:102400001960D7E702D90C232B60D3E72068211885
:102410008A4204BF11685268626004BF09182160D3
:102420005C60C7E738BD00BF8C00002070B5CD1CD4
:1024300025F0030508350C2D38BF0C25002D064668
:1024400001DBA94203D90C233360002070BD00F0EA
:1024500081F8234A1468214691B9224C23681BB99C
:10246000304600F067F820602946304600F062F8F8
:10247000431C26D10C233360304600F06CF8E4E7AF
:102480000B685B1B1AD40B2B0FD90B60CD50CC18EB
:10249000304600F060F804F10B00231D20F0070027
:1024A000C31A1BD05A42E25070BD8C420DBF636804
:1024B0004B686360136018BF0C46E9E70C46496837
:1024C000CAE7C41C24F00304A04205D0211A3046F8
:1024D00000F030F80130CDD02560D9E770BD00BFE5
:1024E0008C00002090000020F8B5074614460E46E8
:1024F00021B91146BDE8F840FFF798BF22B9FFF7B0
:1025000047FF25462846F8BD00F026F884420FD93B
:1025100021463846FFF78AFF05460028F2D03146AB
:102520002246FFF70FFF31463846FFF731FFE9E754
:102530003546E7E738B5064C0023054608462360D4
:1025400000F014F8431C02D1236803B12B6038BD9E
:10255000600100207047704751F8040C0028A0F17A
:102560000400BCBF0B58C01870470000044B19682A
:10257000024609B903491960186802441A60704795
:102580009400002064010020F8B500BFF8BC08BC2E
:102590009E467047F8B500BFF8BC08BC9E46704721
:1025A00002030405060708090A0B0C0D0E0F101094
:1025B0000102030405060708090A0B0C0D0E0F1093
:1025C0000004080225640D0A00000000000000005D
:1025D00000010203040607080900000000010203CD
:1025E00004232D302B2000686C4C0065666745463F
:1025F000470030313233343536373839414243447D
:10260000454600303132333435363738396162630C
:042610006465660097
:04261400B501000804
:042618009101000824
:10261C00010000001000000000127A0010000020E1
:10262C00000000000000000000000000000000009E
:10263C00000000000000000000000000000000008E
:10264C00000000000000000000000000000000007E
:10265C00000000000000000000000000000000006E
:10266C00000000000000000000000000000000005E
:10267C00000000000000000000000000000000004E
:0400000508001C854E
:00000001FF
