:020000040800F2
:100000000030002059170008B1160008B316000888
:10001000B5160008B7160008B91600080000000061
:10002000000000000000000000000000BB160008F7
:10003000BD16000800000000BF160008C116000829
:10004000A9170008A9170008A9170008A917000890
:10005000A9170008A9170008A9170008A917000880
:10006000A9170008A9170008A9170008A917000870
:10007000A9170008A9170008A9170008A917000860
:10008000A9170008A9170008A9170008A917000850
:10009000A9170008A9170008A9170008A917000840
:1000A000A9170008A9170008A9170008A917000830
:1000B000A9170008A917000800000000A9170008E8
:1000C000A91700080000000000000000A9170008A0
:1000D00000000000C5160008A9170008A9170008AD
:1000E000A9170008A9170008000000000000000080
:1000F0000000000000000000000000000000000000
:1001000000000000000000000000000000000000EF
:100110000000000000000000A9170008A91700084F
:1001200000000000000000000000000000000000CF
:1001300000000000000000000000000000000000BF
:10014000A9170008A917000800000000000000001F
:10015000000000000000000000000000000000009F
:10016000000000000000000000000000000000008F
:10017000000000000000000000000000000000007F
:0801800000000000A9170008AF
:1001880010B5054C237833B9044B13B10448AFF3C9
:1001980000800123237010BD0C0000200000000027
:1001A8000418000808B5034B1BB103490348AFF313
:1001B800008008BD0000000010000020041800089E
:1001C80038B50E4A0E4B054618784FF47A73B3FBD0
:1001D800F0F31068B0FBF3F000F08CF8044658B95F
:1001E8000F2D09D8024629464FF0FF3000F042F89B
:1001F800044B20461D6038BD012038BD0800002092
:100208000000002004000020074A08B5136843F0E6
:1002180010031360032000F01BF80020FFF7D0FF45
:1002280001F0C6F9002008BD00200240034A044B33
:1002380011681B780B441360704700BF280000202A
:1002480000000020014B1868704700BF28000020FC
:10025800074AD36823F4E0631B041B0C43F0BF6315
:10026800000243F4003300F4E0600343D3607047B6
:1002780000ED00E0174B30B5DC68C4F30224C4F18C
:100288000703251D042B28BF0423062D4FF0010565
:1002980005FA03F303F1FF338CBF033C0024194034
:1002A800A14005FA04F4013C2240002842EA010278
:1002B8004FEA0212AFBF00F1604000F00F00064B9A
:1002C800D2B2A5BF00F56140D2B21A5480F800231B
:1002D80030BD00BF00ED00E014ED00E0420901234D
:1002E80000F01F0003FA00F0014B43F822007047AA
:1002F80000E100E00138B0F1807F0AD2064B074ADE
:100308005860F02182F823100020072298601A60B4
:1003180070470120704700BF10E000E000ED00E0EA
:1003280090F82120022A10B503D00422826301200C
:1003380010BD0268C46B1168436B21F00E01116097
:10034800116821F001011160026C012101FA02F229
:100358006260002480F8211080F8204013B198478B
:10036800204610BD184610BD2DE9F04F85B00B682A
:10037800DFF86481564A01934FF00F090023019C6E
:10038800DC4002D105B0BDE8F08F012404FA03FA7D
:10039800019C14EA0A0500F093804C6824F0100BC5
:1003A800BBF1020F11D1DF0800EB870703F0070E3E
:1003B8003E6A4FEA8E0E09FA0EFC26EA0C0C0E690C
:1003C80006FA0EF646EA0C063E624FEA430C03278D
:1003D800066807FA0CF7FF4304F0030E3E400EFAD6
:1003E8000CFE0BF1FF3B4EEA0606BBF1010F06605F
:1003F80011D8866806EA070BCE6806FA0CFE4EEAA4
:100408000B068660466826EA0A0AC4F300169E4070
:1004180046EA0A064660C66837408E6806FA0CF651
:100428003743E600C7604BD5D8F8186046F0010698
:10043800C8F81860D8F8186023F0030707F1804758
:1004480006F0010607F58037039603F0030E039EB6
:10045800BE684FEA8E0E09FA0EFCB0F1904F26EAFC
:100468000C0C2FD01B4EB0422ED006F58066B04241
:100478002CD006F58066B04214BF0526032606FA7E
:100488000EF646EA0C06BE601668EF4314F4803F89
:100498000CBF3E402E431660566814F4003F0CBF54
:1004A8003E402E435660966814F4801F0CBF3E40B1
:1004B8002E439660D668A40254BF3E402E43D660B1
:1004C80001335CE70026DAE70126D8E70226D6E7FB
:1004D8000004014000040048001002400AB1816194
:1004E8007047816270474369594041617047000015
:1004F8002DE9F347054618B9012002B0BDE8F08799
:100508000368DA0711D42B689B0700F185802B68F4
:100518001C0700F1F6802B68580700F13F81EA6953
:10052800002A40F0D6810020E7E7BA4C636803F060
:100538000C03042B07D0636803F00C03082B16D1B7
:100548006368DF0313D54FF4003393FAA3F22168ED
:1005580093FAA3F3B3FA83F303F01F03012202FA19
:1005680003F30B42CFD06B68002BCCD1C4E76A6889
:10057800B2F5803F25D1236843F480332360E36AD2
:10058800A96823F00F030B43E36252B3FFF75AFE47
:100598004FF400368046012796FAA6F3226896FAA9
:1005A800A6F3B3FA83F303F01F0307FA03F3134226
:1005B800A9D1FFF747FEA0EB08006428ECD9032077
:1005C8009BE7236832B923F480332360236823F43C
:1005D8008023D3E7B2F5A02FF5D143F4802323601D
:1005E800C9E7FFF72FFE4FF400368046012796FA39
:1005F800A6F3226896FAA6F3B3FA83F303F01F036F
:1006080007FA03F313423FF47EAFFFF71BFEA0EB9C
:1006180008006428EBD9D2E77E4C636813F00C0F0E
:1006280007D0636803F00C03082B22D16368DE034C
:100638001FD4022393FAA3F2216893FAA3F3B3FA1F
:1006480083F303F01F03012202FA03F30B4203D0E2
:100658002B6993427FF450AF2168F82393FAA3F3F0
:10066800B3FA83F26B69934021F0F80213432360D5
:100678004DE72A6901260AB396FAA6F3B3FA83F37B
:1006880003F1845303F584139B0002271E60FFF7D0
:10069800D9FD804697FAA7F3226897FAA7F3B3FA29
:1006A80083F303F01F0306FA03F31342D4D1FFF7D1
:1006B800C9FDA0EB08000228ECD980E796FAA6F35A
:1006C800B3FA83F303F1845303F584139B000227E1
:1006D8001A60FFF7B7FD804697FAA7F3226897FAE2
:1006E800A7F3B3FA83F303F01F0306FA03F31342E5
:1006F8003FF40DAFFFF7A6FDA0EB08000228EBD9E9
:100708005DE7AA69434E444901241AB394FAA4F355
:10071800B3FA83F30B449B0002271C60FFF792FD9A
:10072800804697FAA7F397FAA7F397FAA7F3726A9E
:1007380097FAA7F3B3FA83F303F01F0304FA03F35A
:1007480013427FF4E8AEFFF77DFDA0EB0800022816
:10075800E7D934E794FAA4F3B3FA83F30B449B0084
:1007680002271A60FFF76EFD804697FAA7F397FAFB
:10077800A7F397FAA7F3726A97FAA7F3B3FA83F382
:1007880003F01F0304FA03F313423FF4C4AEFFF768
:1007980059FDA0EB08000228E7D910E71D4CE369D2
:1007A800D90034D4E36943F08053E361E36903F08B
:1007B80080530193019B0126184F3B68DA052FD51A
:1007C800EB68012B3DD1236A43F001032362FFF755
:1007D80039FD02278246B9464FF0010897FAA7F378
:1007E80097FAA7F3002B6CD0226A99FAA9F3B3FA07
:1007F80083F303F01F0308FA03F3134258D0002EC3
:100808003FF48DAEE36923F08053E36187E6002669
:10081800D2E700BF00100240208190100070004015
:100828003B6843F480733B60FFF70CFD80463B68F0
:10083800DB05C5D4FFF706FDA0EB08006428F6D950
:10084800BDE63BBB236A23F001032362236A23F03E
:1008580004032362FFF7F6FC02278246B9464FF0ED
:10086800010897FAA7F397FAA7F373B3226A99FADC
:10087800A9F3B3FA83F303F01F0308FA03F313424F
:10088800BDD0FFF7DFFC41F28833A0EB0A009842A5
:10089800E7D994E6052B236A03D143F004032362C6
:1008A80091E723F001032362236A23F004038DE711
:1008B800FFF7C8FC41F28833A0EB0A0098428DD9B3
:1008C8007DE697FAA7F3626A8FE797FAA7F3626A59
:1008D800CDE7414C636803F00C03082B3FF40CAEE2
:1008E800022A4FF0807352D193FAA3F3B3FA83F339
:1008F80003F1845303F584139B0000221A60FFF769
:10090800A1FC4FF000778046012697FAA7F32268EA
:1009180097FAA7F3B3FA83F303F01F0306FA03F376
:1009280013422DD162686B6A296A22F474120B4350
:10093800134363604FF0807393FAA3F3B3FA83F31E
:1009480003F1845303F584139B004FF000751E6078
:10095800FFF778FC0126074695FAA5F3226895FA71
:10096800A5F3B3FA83F303F01F0306FA03F3134264
:100978007FF4D9ADFFF766FCC01B0228ECD91EE650
:10098800FFF760FCA0EB08000228BED917E693FA2F
:10099800A3F3B3FA83F303F1845303F584139B00A1
:1009A80000221A60FFF74EFC4FF00075074601263B
:1009B80095FAA5F3226895FAA5F3B3FA83F303F041
:1009C8001F0306FA03F313423FF4ADADFFF73AFCF9
:1009D800C01B0228ECD9F2E50010024010B5134CF8
:1009E800616801F00C03082B1ED14FF4701393FAC1
:1009F800A3F301F47012B3FA83F322FA03F30C4A57
:100A0800D05CE36A0F2292FAA2F2B2FA82F203F001
:100A18000F03D340074AD25CCB034ABF064B074BB0
:100A2800B3FBF2F3584310BD034810BD0010024059
:100A38001C1800082C18000800127A0000093D0054
:100A48002DE9F0410D46044610B90120BDE8F081BA
:100A58004C4A136803F007038B422ED32268910790
:100A680036D4D2073CD4474A136803F007039D42A3
:100A780075D32268444D12F0040F7CD1130706D5B4
:100A88006B68226923F4605343EAC2036B60FFF783
:100A9800A5FF6B68F02292FAA2F2B2FA82F203F092
:100AA800F003D340394AD35CD840394B1860002052
:100AB800FFF786FB0020BDE8F081136823F00703E9
:100AC8000B431360136803F007039942BDD1C5E7D0
:100AD8002D49A0684B6823F0F00303434B60C0E73F
:100AE8006268294E012A27D14FF4003393FAA3F103
:100AF800316893FAA3F3B3FA83F303F01F0302FAFE
:100B080003F30B42A1D0736823F003031A43726006
:100B1800FFF798FB41F2883807467368626803F06C
:100B28000C03B3EB820F9ED0FFF78CFBC01B404534
:100B3800F3D90320BDE8F081022A0CBF4FF00073FF
:100B4800022393FAA3F1306893FAA3F3B3FA83F379
:100B580003F01F03012101FA03F30342D2E71368EC
:100B680023F007032B431360136803F007039D4228
:100B78007FF46BAF7DE76B68E16823F4E0630B43B8
:100B88006B607BE700200240001002404318000819
:100B980008000020084B4FF4E0625B6892FAA2F26A
:100BA800B2FA82F203F4E063D340044AD35C044A05
:100BB8001068D840704700BF001002405318000862
:100BC80008000020084B4FF460525B6892FAA2F2CA
:100BD800B2FA82F203F46053D340044AD35C044A65
:100BE8001068D840704700BF001002405318000832
:100BF8000800002003682DE9F3470546D80320D5EF
:100C0800504CE369D90044D4E36943F08053E3616D
:100C1800E36903F080530193019B01264A4F3B6827
:100C2800DA0538D5236A13F4407348D1236A6A6811
:100C380023F44073134323621EB1E36923F0805306
:100C4800E3612868C10706D53E4AA968136B23F0FB
:100C580003030B431363820606D53A4AE968136B0C
:100C680023F010030B431363030606D5354A29699D
:100C7800D36A23F4F8730B43D36210F480501BD06B
:100C8800304A6969136B23F480730B4313630020A4
:100C980012E00026C2E73B6843F480733B60FFF72D
:100CA800D1FA80463B68DB05BCD4FFF7CBFAA0EB52
:100CB80008006428F6D9032002B0BDE8F0876A6806
:100CC80002F440729342B1D0216A4FF4803321F488
:100CD800407093FAA3F2DFF874E0B2FA82F2724439
:100CE80092000127176093FAA3F3B3FA83F37344CE
:100CF8009B0000221A602062C80797D5FFF7A2FA66
:100D08004FF002088246C14698FAA8F398FAA8F369
:100D18009BB1226A99FAA9F3B3FA83F303F01F038C
:100D280007FA03F3134281D1FFF78CFA41F28833B3
:100D3800A0EB0A009842E7D9BDE798FAA8F3626ADF
:100D4800E8E700BF001002400070004000819010EA
:100D580003681A6822F490721A609A6822F00102F5
:100D68009A60202380F86A30704790F86A30202B08
:100D78003DD1002939D0002A37D090F86830012BAE
:100D880035D0012380F8683083684165B3F5805F0A
:100D9800A0F85820A0F85A2019D10369ABB940F23D
:100DA800FF13A0F85C3000232222C36680F86A2073
:100DB800026880F86830916841F00101916011681B
:100DC80041F49071116018467047FF23E9E723B991
:100DD8000369002BF9D07F23E3E7B3F1805FE2D109
:100DE8000369002BF7D03F23DBE70120704702207F
:100DF80070477047704708B5406A0023A0F85A301A
:100E0800A0F85230FFF7F6FF08BD000038B50446D9
:100E180005682169A368C26928680B4361690B43A7
:100E28004949134301400B432B606B68E168206A12
:100E380023F440530B436B60A968A36921F4306124
:100E480003430B43AB60414B9D4212D103F558431A
:100E58003F491B6B03F00303B2F5004FCB5C3BD15A
:100E6800082B36D8DFE803F00F2124352D3535352A
:100E78003000384B9D4203D003F580639D425ED11C
:100E8800B2F5004F31D1FFF785FE61684A0802EBE1
:100E98004003B3FBF1F39BB2002023F00F0221685B
:100EA800C3F342031343CB6038BDFFF78BFEECE777
:100EB8006068430803F5740303F51053B3FBF0F3BC
:100EC800E9E7FFF78BFDE0E76068430803F5803347
:100ED800F4E701200023E0E7082B33D8DFE803F02C
:100EE80005101B32273232322A00FFF753FE63689F
:100EF80000EB5300B0FBF3F080B2E860002038BD8F
:100F0800FFF760FE636800EB5300B0FBF3F00F4B94
:100F180080B2D860F2E76268530803F5F40303F57A
:100F28009053B3FBF2F3094A9BB2D360E6E7FFF7AD
:100F380055FDE7E76268530803F50043F1E7B2F5AA
:100F4800004FC6D0012038BDF369FFEF00380140DB
:100F58003C18000800440040436ADA0710B506D57B
:100F68000168846A4A6822F4003222434A609C0776
:100F780006D50168C46A4A6822F4803222434A606E
:100F8800590706D50168046B4A6822F48022224377
:100F98004A601A0706D50168446B4A6822F4004281
:100FA80022434A60DC0606D50168846B8A6822F40D
:100FB800805222438A60990606D50168C46B8A6804
:100FC80022F4005222438A605A060FD50168046C45
:100FD8004A6822F480122243B4F5801F4A6005D182
:100FE8004A68446C22F4C00222434A601B0606D5B4
:100FF8000268816C536823F400230B43536010BDCF
:101008002DE9F041069D04460F461646984621688C
:10101800CA6937EA02030CBF01220022B24202D099
:101028000020BDE8F0816B1CF2D09DB923681A68D6
:1010380022F4D0721A609A6822F001029A60202382
:1010480084F8693084F86A30002384F86830032013
:10105800BDE8F081FFF7F6F8A0EB08008542D6D28C
:10106800E4E72DE9F3411F4690F86930202B044648
:101078000D4690464CD1002948D0002A46D090F819
:101088006830012B44D0012380F868300023C36600
:10109800212380F86930FFF7D5F8A4F85080064678
:1010A800A4F85280B4F8522092B262B9009733463D
:1010B80040212046FFF7A4FF98B9202384F869301F
:1010C80084F868000EE0B4F852300097013B9BB2F8
:1010D800A4F852300022334680212046FFF790FFC3
:1010E80018B1032002B0BDE8F081A3682268B3F507
:1010F800805F07D123692BB935F8023BC3F3080396
:101108001385CFE72B7813850135CBE70120E9E775
:101118000220E7E773B504460026C666FFF792F893
:1011280023681B681A07054617D423681B685B07E2
:101138000AD56FF07E43009300222B464FF48001BE
:101148002046FFF75DFFA0B92023002084F869300E
:1011580084F8680084F86A300CE06FF07E430093EE
:10116800324603464FF400112046FFF749FF002896
:10117800DBD0032002B070BD10B5044660B390F810
:10118800693003F0FF021BB980F8682000F028FAE4
:101198002268242384F86930136823F0010313605C
:1011A8002046FFF733FE012816D0636A13B12046A4
:1011B800FFF7D2FE23685A6822F490425A609A6870
:1011C80022F02A029A601A6842F0010220461A6048
:1011D800BDE81040FFF79EBF012010BD90F86930B0
:1011E800212B27D1B0F8523002689BB24BB9116855
:1011F80021F080011160116841F040011160002068
:1012080070478368B3F5805FC36C0ED1016961B91B
:1012180033F8021BC1F308011185C364B0F85230DA
:10122800013B9BB2A0F85230E9E7591CC1641B7816
:101238001385F3E702207047016808B50B6823F0AF
:1012480040030B60202380F86930FFF7D2FD0020AF
:1012580008BD90F86A30222B10B5036829D1998C03
:101268008368B0F85C20B3F5805F02EA0102436D41
:101278001BD10169C9B923F8022B4365B0F85A405C
:10128800013CA4B2A0F85A406CB903681A6822F469
:1012980090721A609A6822F001029A60202380F8FE
:1012A8006A3000F06BF9002010BD591C41651A70B6
:1012B800E4E79A6942F008029A61022010BD000032
:1012C8000268D369116870B513F00F05044607D199
:1012D8009E0605D58E0603D5BDE87040FFF7B9BF59
:1012E8009068002D5CD010F0010502D111F4907FB8
:1012F80056D0D80707D5CE0505D501201062E06E77
:1013080040F00100E066980706D52DB10220106272
:10131800E06E40F00400E0665E0706D52DB10420BB
:101328001062E06E40F00200E066180707D58E06EE
:1013380000D425B108201062E26E0243E266E26E34
:10134800002A50D0980604D58A0602D52046FFF711
:1013580080FFE36E1B07204604D423689D6815F0C0
:10136800400519D0FFF7F4FC23689A6856060FD594
:101378009A68606E22F040029A6048B11A4B436343
:10138800FEF7CEFF78B3606EBDE87040436B184738
:101398002046FFF72FFD70BDFFF72CFDE56670BDF9
:1013A800DD020ED546020CD54FF4801313622023BC
:1013B80084F86930204684F86A30BDE8704000F04F
:1013C80015B81D0606D5080604D52046BDE87040A8
:1013D800FFF704BF5A0606D54B0604D52046BDE8DC
:1013E8007040FFF729BF70BDFF0D0008704770B54A
:1013F80096B0282200210CA800F0F8F91422002148
:1014080001A800F0F3F918220DEB0200002100F00A
:10141800EDF910230224012611930CA84FF4601350
:1014280015930C9410961394FFF762F80F23002578
:10143800019321464FF4806301A804930294039515
:101448000595FFF7FDFA06A806960895FFF7D2FB63
:1014580016B070BD00B589B0FEF7D6FEFFF7C7FF1E
:101468001422002103A800F0C1F92A4B2A485A691E
:101478002A4D42F480025A615A6902F480020092AD
:10148800009A5A6942F400325A615A6902F40032E9
:101498000192019A5A6942F480225A615B6903F405
:1014A8008023002202930821029BFFF717F80823E4
:1014B800002403A903931848059401230493069470
:1014C800FEF752FF1648174A84604FF416430C265D
:1014D80080E80C00C460046146618461C4610462F0
:1014E8004462FFF749FE1049AC6047F612232846CC
:1014F80085E80A00EC602C616E61AC61EC612C62DD
:101508006C62FFF739FE2A68136843F02003136002
:10151800FEE700BF00100240000400483000002031
:10152800A000002000440040003801407FB5044678
:101538000D46002202A930203126C2F1070345FAE0
:1015480003F3DB0716D58E540132082AF5D10A2396
:101558002046FFF786FD084B1A889B78ADF80420D3
:101568008DF8063002220A2301A92046FFF779FDEB
:1015780004B070BD8854E7E74018000870B5094EFC
:10158800094D0024315D0A2228460134FFF7CEFFB9
:10159800032CF7D1054B1A68136843F02003136036
:1015A80070BD00BF2C000020A000002030000020EB
:1015B8000A4B9A6942F001029A619A6982B002F074
:1015C80001020092009ADA6942F08052DA61DB691E
:1015D80003F080530193019B02B070470010024052
:1015E80010B514228AB0044600210DEB020000F069
:1015F800FDF82368294A93422AD1294B9A6942F473
:1016080080429A619A6902F480420192019A5A6969
:1016180042F400325A615B6903F400330293029B7F
:101628004FF4C0630593022306930323089305A987
:1016380007234FF090400993FEF796FE00222520DD
:101648001146FEF717FE2520FEF748FE0AB010BD2A
:10165800144A9342FAD1124BDA6942F40032DA6141
:10166800DA6902F400320392039A5A6942F40032AA
:101678005A615B6903F400330493049B48F2040342
:101688000593022306930323089305A907234FF024
:1016980090400993FEF768FED8E700BF0038014084
:1016A80000100240004400407047FEE7FEE7FEE7F6
:1016B800FEE7704770477047FEF7B8BD10B5074C96
:1016C800074903222046FFF750FB06480821FEF78A
:1016D8000AFF2046BDE81040FFF7F2BD30000020A9
:1016E8002C000020000400481549D1F8883043F444
:1016F8007003C1F88830134B1A6842F001021A606F
:101708005868114A02405A601A6822F0847222F41A
:1017180080321A601A6822F480221A605A6822F409
:10172800FE025A60DA6A22F00F02DA62186B074A80
:1017380002401A6300229A604FF000638B60704782
:1017480000ED00E0001002400CC07FF8CCFC00FF68
:10175800DFF834D0002103E00C4B5B5843500431D0
:101768000B480C4B42189A42F6D30B4A02E000236E
:1017780042F8043B094B9A42F9D3FFF7B5FF00F052
:1017880011F8FFF767FEFEE7003000206418000834
:10179800000000200C0000200C0000201001002098
:1017A800FEE7000070B50D4E0D4CA41BA4100025DB
:1017B800A54209D10B4E0C4C00F020F8A41BA41034
:1017C8000025A54205D170BD56F82530984701354A
:1017D800EEE756F8253098470135F2E75C1800081F
:1017E8005C1800085C1800086018000802440346EA
:1017F800934200D1704703F8011BF9E7F8B500BF21
:10180800F8BC08BC9E467047F8B500BFF8BC08BCD9
:041818009E46704731
:10181C0002030405060708090A0B0C0D0E0F101025
:10182C000102030405060708090A0B0C0D0E0F1024
:10183C00000408020D0A0000000000000000000176
:10184C00020304060708090000000001020304005B
:04185C00AD010008D2
:0418600089010008F2
:0C186400010000001000000000127A00DB
:04000005080017597F
:00000001FF
